{
  "_format": "hh-sol-artifact-1",
  "contractName": "TimeCollection",
  "sourceName": "contracts/TimeCollection.sol",
  "abi": [
    {
      "inputs": [
        {
          "internalType": "string",
          "name": "name",
          "type": "string"
        },
        {
          "internalType": "string",
          "name": "symbol",
          "type": "string"
        },
        {
          "internalType": "bool",
          "name": "useNativeCurrency",
          "type": "bool"
        }
      ],
      "stateMutability": "nonpayable",
      "type": "constructor"
    },
    {
      "anonymous": false,
      "inputs": [
        {
          "indexed": true,
          "internalType": "address",
          "name": "owner",
          "type": "address"
        },
        {
          "indexed": true,
          "internalType": "address",
          "name": "approved",
          "type": "address"
        },
        {
          "indexed": true,
          "internalType": "uint256",
          "name": "tokenId",
          "type": "uint256"
        }
      ],
      "name": "Approval",
      "type": "event"
    },
    {
      "anonymous": false,
      "inputs": [
        {
          "indexed": true,
          "internalType": "address",
          "name": "owner",
          "type": "address"
        },
        {
          "indexed": true,
          "internalType": "address",
          "name": "operator",
          "type": "address"
        },
        {
          "indexed": false,
          "internalType": "bool",
          "name": "approved",
          "type": "bool"
        }
      ],
      "name": "ApprovalForAll",
      "type": "event"
    },
    {
      "anonymous": false,
      "inputs": [
        {
          "indexed": true,
          "internalType": "address",
          "name": "currency",
          "type": "address"
        }
      ],
      "name": "CurrencyAllowanceToggled",
      "type": "event"
    },
    {
      "anonymous": false,
      "inputs": [
        {
          "indexed": true,
          "internalType": "address",
          "name": "previousOwner",
          "type": "address"
        },
        {
          "indexed": true,
          "internalType": "address",
          "name": "newOwner",
          "type": "address"
        }
      ],
      "name": "OwnershipTransferred",
      "type": "event"
    },
    {
      "anonymous": false,
      "inputs": [
        {
          "indexed": true,
          "internalType": "uint256",
          "name": "tokenId",
          "type": "uint256"
        },
        {
          "indexed": false,
          "internalType": "address",
          "name": "seller",
          "type": "address"
        },
        {
          "indexed": false,
          "internalType": "address",
          "name": "buyer",
          "type": "address"
        }
      ],
      "name": "TokenBought",
      "type": "event"
    },
    {
      "anonymous": false,
      "inputs": [
        {
          "indexed": true,
          "internalType": "uint256",
          "name": "tokenId",
          "type": "uint256"
        }
      ],
      "name": "TokenForSaleToggled",
      "type": "event"
    },
    {
      "anonymous": false,
      "inputs": [
        {
          "indexed": true,
          "internalType": "uint256",
          "name": "tokenId",
          "type": "uint256"
        },
        {
          "indexed": false,
          "internalType": "uint256",
          "name": "newPrice",
          "type": "uint256"
        }
      ],
      "name": "TokenPriceChanged",
      "type": "event"
    },
    {
      "anonymous": false,
      "inputs": [
        {
          "indexed": true,
          "internalType": "address",
          "name": "from",
          "type": "address"
        },
        {
          "indexed": true,
          "internalType": "address",
          "name": "to",
          "type": "address"
        },
        {
          "indexed": true,
          "internalType": "uint256",
          "name": "tokenId",
          "type": "uint256"
        }
      ],
      "name": "Transfer",
      "type": "event"
    },
    {
      "inputs": [
        {
          "internalType": "address",
          "name": "to",
          "type": "address"
        },
        {
          "internalType": "uint256",
          "name": "tokenId",
          "type": "uint256"
        }
      ],
      "name": "approve",
      "outputs": [],
      "stateMutability": "nonpayable",
      "type": "function"
    },
    {
      "inputs": [
        {
          "internalType": "address",
          "name": "owner",
          "type": "address"
        }
      ],
      "name": "balanceOf",
      "outputs": [
        {
          "internalType": "uint256",
          "name": "",
          "type": "uint256"
        }
      ],
      "stateMutability": "view",
      "type": "function"
    },
    {
      "inputs": [
        {
          "internalType": "uint256",
          "name": "tokenId",
          "type": "uint256"
        }
      ],
      "name": "buyToken",
      "outputs": [],
      "stateMutability": "payable",
      "type": "function"
    },
    {
      "inputs": [
        {
          "internalType": "uint256",
          "name": "tokenId",
          "type": "uint256"
        },
        {
          "internalType": "address",
          "name": "currency",
          "type": "address"
        },
        {
          "internalType": "uint256",
          "name": "price",
          "type": "uint256"
        }
      ],
      "name": "changeTokenBuyingConditions",
      "outputs": [],
      "stateMutability": "nonpayable",
      "type": "function"
    },
    {
      "inputs": [
        {
          "internalType": "uint256",
          "name": "tokenId",
          "type": "uint256"
        }
      ],
      "name": "getApproved",
      "outputs": [
        {
          "internalType": "address",
          "name": "",
          "type": "address"
        }
      ],
      "stateMutability": "view",
      "type": "function"
    },
    {
      "inputs": [
        {
          "internalType": "address",
          "name": "owner",
          "type": "address"
        },
        {
          "internalType": "address",
          "name": "operator",
          "type": "address"
        }
      ],
      "name": "isApprovedForAll",
      "outputs": [
        {
          "internalType": "bool",
          "name": "",
          "type": "bool"
        }
      ],
      "stateMutability": "view",
      "type": "function"
    },
    {
      "inputs": [
        {
          "internalType": "address",
          "name": "",
          "type": "address"
        }
      ],
      "name": "isCurrencyAllowed",
      "outputs": [
        {
          "internalType": "bool",
          "name": "",
          "type": "bool"
        }
      ],
      "stateMutability": "view",
      "type": "function"
    },
    {
      "inputs": [
        {
          "internalType": "string",
          "name": "name",
          "type": "string"
        },
        {
          "internalType": "string",
          "name": "description",
          "type": "string"
        },
        {
          "internalType": "string",
          "name": "work",
          "type": "string"
        },
        {
          "internalType": "uint256",
          "name": "availabilityFrom",
          "type": "uint256"
        },
        {
          "internalType": "uint256",
          "name": "availabilityTo",
          "type": "uint256"
        },
        {
          "internalType": "uint256",
          "name": "duration",
          "type": "uint256"
        },
        {
          "internalType": "uint256",
          "name": "royaltyBasisPoints",
          "type": "uint256"
        }
      ],
      "name": "mint",
      "outputs": [
        {
          "internalType": "uint256",
          "name": "",
          "type": "uint256"
        }
      ],
      "stateMutability": "nonpayable",
      "type": "function"
    },
    {
      "inputs": [],
      "name": "name",
      "outputs": [
        {
          "internalType": "string",
          "name": "",
          "type": "string"
        }
      ],
      "stateMutability": "view",
      "type": "function"
    },
    {
      "inputs": [],
      "name": "owner",
      "outputs": [
        {
          "internalType": "address",
          "name": "",
          "type": "address"
        }
      ],
      "stateMutability": "view",
      "type": "function"
    },
    {
      "inputs": [
        {
          "internalType": "uint256",
          "name": "tokenId",
          "type": "uint256"
        }
      ],
      "name": "ownerOf",
      "outputs": [
        {
          "internalType": "address",
          "name": "",
          "type": "address"
        }
      ],
      "stateMutability": "view",
      "type": "function"
    },
    {
      "inputs": [
        {
          "internalType": "uint256",
          "name": "tokenId",
          "type": "uint256"
        }
      ],
      "name": "redeem",
      "outputs": [],
      "stateMutability": "nonpayable",
      "type": "function"
    },
    {
      "inputs": [],
      "name": "renounceOwnership",
      "outputs": [],
      "stateMutability": "nonpayable",
      "type": "function"
    },
    {
      "inputs": [
        {
          "internalType": "uint256",
          "name": "tokenId",
          "type": "uint256"
        },
        {
          "internalType": "uint256",
          "name": "salePrice",
          "type": "uint256"
        }
      ],
      "name": "royaltyInfo",
      "outputs": [
        {
          "internalType": "address",
          "name": "",
          "type": "address"
        },
        {
          "internalType": "uint256",
          "name": "",
          "type": "uint256"
        }
      ],
      "stateMutability": "view",
      "type": "function"
    },
    {
      "inputs": [
        {
          "internalType": "address",
          "name": "from",
          "type": "address"
        },
        {
          "internalType": "address",
          "name": "to",
          "type": "address"
        },
        {
          "internalType": "uint256",
          "name": "tokenId",
          "type": "uint256"
        }
      ],
      "name": "safeTransferFrom",
      "outputs": [],
      "stateMutability": "nonpayable",
      "type": "function"
    },
    {
      "inputs": [
        {
          "internalType": "address",
          "name": "from",
          "type": "address"
        },
        {
          "internalType": "address",
          "name": "to",
          "type": "address"
        },
        {
          "internalType": "uint256",
          "name": "tokenId",
          "type": "uint256"
        },
        {
          "internalType": "bytes",
          "name": "_data",
          "type": "bytes"
        }
      ],
      "name": "safeTransferFrom",
      "outputs": [],
      "stateMutability": "nonpayable",
      "type": "function"
    },
    {
      "inputs": [
        {
          "internalType": "address",
          "name": "operator",
          "type": "address"
        },
        {
          "internalType": "bool",
          "name": "approved",
          "type": "bool"
        }
      ],
      "name": "setApprovalForAll",
      "outputs": [],
      "stateMutability": "nonpayable",
      "type": "function"
    },
    {
      "inputs": [
        {
          "internalType": "bytes4",
          "name": "interfaceId",
          "type": "bytes4"
        }
      ],
      "name": "supportsInterface",
      "outputs": [
        {
          "internalType": "bool",
          "name": "",
          "type": "bool"
        }
      ],
      "stateMutability": "view",
      "type": "function"
    },
    {
      "inputs": [],
      "name": "symbol",
      "outputs": [
        {
          "internalType": "string",
          "name": "",
          "type": "string"
        }
      ],
      "stateMutability": "view",
      "type": "function"
    },
    {
      "inputs": [
        {
          "internalType": "address",
          "name": "currency",
          "type": "address"
        }
      ],
      "name": "toggleCurrencyAllowance",
      "outputs": [],
      "stateMutability": "nonpayable",
      "type": "function"
    },
    {
      "inputs": [
        {
          "internalType": "uint256",
          "name": "tokenId",
          "type": "uint256"
        }
      ],
      "name": "toggleForSale",
      "outputs": [],
      "stateMutability": "nonpayable",
      "type": "function"
    },
    {
      "inputs": [
        {
          "internalType": "uint256",
          "name": "tokenId",
          "type": "uint256"
        }
      ],
      "name": "tokenURI",
      "outputs": [
        {
          "internalType": "string",
          "name": "",
          "type": "string"
        }
      ],
      "stateMutability": "view",
      "type": "function"
    },
    {
      "inputs": [
        {
          "internalType": "uint256",
          "name": "",
          "type": "uint256"
        }
      ],
      "name": "tokens",
      "outputs": [
        {
          "internalType": "uint256",
          "name": "availabilityFrom",
          "type": "uint256"
        },
        {
          "internalType": "uint256",
          "name": "availabilityTo",
          "type": "uint256"
        },
        {
          "internalType": "uint256",
          "name": "duration",
          "type": "uint256"
        },
        {
          "internalType": "uint256",
          "name": "price",
          "type": "uint256"
        },
        {
          "internalType": "uint256",
          "name": "royaltyBasisPoints",
          "type": "uint256"
        },
        {
          "internalType": "address payable",
          "name": "mintedBy",
          "type": "address"
        },
        {
          "internalType": "address",
          "name": "currency",
          "type": "address"
        },
        {
          "internalType": "bool",
          "name": "redeemed",
          "type": "bool"
        },
        {
          "internalType": "bool",
          "name": "forSale",
          "type": "bool"
        },
        {
          "internalType": "string",
          "name": "name",
          "type": "string"
        },
        {
          "internalType": "string",
          "name": "description",
          "type": "string"
        },
        {
          "internalType": "string",
          "name": "work",
          "type": "string"
        }
      ],
      "stateMutability": "view",
      "type": "function"
    },
    {
      "inputs": [
        {
          "internalType": "address",
          "name": "from",
          "type": "address"
        },
        {
          "internalType": "address",
          "name": "to",
          "type": "address"
        },
        {
          "internalType": "uint256",
          "name": "tokenId",
          "type": "uint256"
        }
      ],
      "name": "transferFrom",
      "outputs": [],
      "stateMutability": "nonpayable",
      "type": "function"
    },
    {
      "inputs": [
        {
          "internalType": "address",
          "name": "newOwner",
          "type": "address"
        }
      ],
      "name": "transferOwnership",
      "outputs": [],
      "stateMutability": "nonpayable",
      "type": "function"
    }
  ],
  "bytecode": "0x60806040523480156200001157600080fd5b5060405162004d2e38038062004d2e83398101604081905262000034916200027a565b8251839083906200004d90600090602085019062000121565b5080516200006390600190602084019062000121565b505050620000806200007a620000cb60201b60201c565b620000cf565b60006007558015620000c2576000805260096020527fec8156718a8372b1db44bb411437d0870f3e3790d4a08526d024ce1b0b668f6b805460ff191660011790555b5050506200034d565b3390565b600680546001600160a01b038381166001600160a01b0319831681179093556040519116919082907f8be0079c531659141344cd1fd0a4f28419497f9722a3daafe3b4186f6b6457e090600090a35050565b8280546200012f90620002fa565b90600052602060002090601f0160209004810192826200015357600085556200019e565b82601f106200016e57805160ff19168380011785556200019e565b828001600101855582156200019e579182015b828111156200019e57825182559160200191906001019062000181565b50620001ac929150620001b0565b5090565b5b80821115620001ac5760008155600101620001b1565b600082601f830112620001d8578081fd5b81516001600160401b0380821115620001f557620001f562000337565b604051601f8301601f19908116603f0116810190828211818310171562000220576200022062000337565b816040528381526020925086838588010111156200023c578485fd5b8491505b838210156200025f578582018301518183018401529082019062000240565b838211156200027057848385830101525b9695505050505050565b6000806000606084860312156200028f578283fd5b83516001600160401b0380821115620002a6578485fd5b620002b487838801620001c7565b94506020860151915080821115620002ca578384fd5b50620002d986828701620001c7565b92505060408401518015158114620002ef578182fd5b809150509250925092565b600181811c908216806200030f57607f821691505b602082108114156200033157634e487b7160e01b600052602260045260246000fd5b50919050565b634e487b7160e01b600052604160045260246000fd5b6149d1806200035d6000396000f3fe6080604052600436106101665760003560e01c806370a08231116100d1578063a32018b91161008a578063c87b56dd11610064578063c87b56dd1461046c578063db006a751461048c578063e985e9c5146104ac578063f2fde38b146104f557600080fd5b8063a32018b91461040c578063b88d4fde1461042c578063bae1ae401461044c57600080fd5b806370a0823114610364578063715018a6146103845780637f37739b146103995780638da5cb5b146103b957806395d89b41146103d7578063a22cb465146103ec57600080fd5b80632d296bf1116101235780632d296bf11461027b5780632f98d66d1461028e57806342842e0e146102bc5780634f64b2be146102dc5780635a195d19146103145780636352211e1461034457600080fd5b806301ffc9a71461016b57806306fdde03146101a0578063081812fc146101c2578063095ea7b3146101fa57806323b872dd1461021c5780632a55205a1461023c575b600080fd5b34801561017757600080fd5b5061018b610186366004613ffb565b610515565b60405190151581526020015b60405180910390f35b3480156101ac57600080fd5b506101b5610540565b604051610197919061462d565b3480156101ce57600080fd5b506101e26101dd3660046140dc565b6105d2565b6040516001600160a01b039091168152602001610197565b34801561020657600080fd5b5061021a610215366004613fb6565b61065f565b005b34801561022857600080fd5b5061021a610237366004613ecc565b610775565b34801561024857600080fd5b5061025c610257366004614130565b6107a6565b604080516001600160a01b039093168352602083019190915201610197565b61021a6102893660046140dc565b61081b565b34801561029a57600080fd5b506102ae6102a9366004614033565b610e05565b604051908152602001610197565b3480156102c857600080fd5b5061021a6102d7366004613ecc565b61102c565b3480156102e857600080fd5b506102fc6102f73660046140dc565b611047565b6040516101979c9b9a99989796959493929190614718565b34801561032057600080fd5b5061018b61032f366004613e80565b60096020526000908152604090205460ff1681565b34801561035057600080fd5b506101e261035f3660046140dc565b611253565b34801561037057600080fd5b506102ae61037f366004613e80565b6112ca565b34801561039057600080fd5b5061021a611351565b3480156103a557600080fd5b5061021a6103b436600461410c565b611387565b3480156103c557600080fd5b506006546001600160a01b03166101e2565b3480156103e357600080fd5b506101b56117a6565b3480156103f857600080fd5b5061021a610407366004613f80565b6117b5565b34801561041857600080fd5b5061021a6104273660046140dc565b61187a565b34801561043857600080fd5b5061021a610447366004613f07565b611cd1565b34801561045857600080fd5b5061021a610467366004613e80565b611d09565b34801561047857600080fd5b506101b56104873660046140dc565b611d84565b34801561049857600080fd5b5061021a6104a73660046140dc565b61238f565b3480156104b857600080fd5b5061018b6104c7366004613e9a565b6001600160a01b03918216600090815260056020908152604080832093909416825291909152205460ff1690565b34801561050157600080fd5b5061021a610510366004613e80565b61277b565b60006001600160e01b0319821663152a902d60e11b148061053a575061053a82612816565b92915050565b60606000805461054f906148a0565b80601f016020809104026020016040519081016040528092919081815260200182805461057b906148a0565b80156105c85780601f1061059d576101008083540402835291602001916105c8565b820191906000526020600020905b8154815290600101906020018083116105ab57829003601f168201915b5050505050905090565b60006105dd82612866565b6106435760405162461bcd60e51b815260206004820152602c60248201527f4552433732313a20617070726f76656420717565727920666f72206e6f6e657860448201526b34b9ba32b73a103a37b5b2b760a11b60648201526084015b60405180910390fd5b506000908152600460205260409020546001600160a01b031690565b600061066a82611253565b9050806001600160a01b0316836001600160a01b031614156106d85760405162461bcd60e51b815260206004820152602160248201527f4552433732313a20617070726f76616c20746f2063757272656e74206f776e656044820152603960f91b606482015260840161063a565b336001600160a01b03821614806106f457506106f481336104c7565b6107665760405162461bcd60e51b815260206004820152603860248201527f4552433732313a20617070726f76652063616c6c6572206973206e6f74206f7760448201527f6e6572206e6f7220617070726f76656420666f7220616c6c0000000000000000606482015260840161063a565b6107708383612883565b505050565b61077f33826128f1565b61079b5760405162461bcd60e51b815260040161063a906146c7565b6107708383836129db565b600080836107b381612866565b6107d25760405162ce66c960e21b81526004810182905260240161063a565b600085815260086020526040902060058101546004909101546001600160a01b0390911690612710906108059087614811565b61080f91906147f1565b92509250509250929050565b8061082581612866565b6108445760405162ce66c960e21b81526004810182905260240161063a565b3361086457604051634726455360e11b815233600482015260240161063a565b600061086f83611253565b90506001600160a01b0381163314156108a4576040516301f26c9560e61b81523360048201526024810184905260440161063a565b600083815260086020908152604080832081516101808101835281548152600182015493810193909352600281015491830191909152600381015460608301526004810154608083015260058101546001600160a01b0390811660a0840152600682015490811660c084015260ff600160a01b82048116151560e0850152600160a81b90910416151561010083015260078101805461012084019190610949906148a0565b80601f0160208091040260200160405190810160405280929190818152602001828054610975906148a0565b80156109c25780601f10610997576101008083540402835291602001916109c2565b820191906000526020600020905b8154815290600101906020018083116109a557829003601f168201915b505050505081526020016008820180546109db906148a0565b80601f0160208091040260200160405190810160405280929190818152602001828054610a07906148a0565b8015610a545780601f10610a2957610100808354040283529160200191610a54565b820191906000526020600020905b815481529060010190602001808311610a3757829003601f168201915b50505050508152602001600982018054610a6d906148a0565b80601f0160208091040260200160405190810160405280929190818152602001828054610a99906148a0565b8015610ae65780601f10610abb57610100808354040283529160200191610ae6565b820191906000526020600020905b815481529060010190602001808311610ac957829003601f168201915b5050509190925250505060c08101516001600160a01b031660009081526009602052604090205490915060ff16610b485760c081015160405163c42c464760e01b8152600481018690526001600160a01b03909116602482015260440161063a565b806101000151610b6e57604051630cb5f92160e41b81526004810185905260240161063a565b606081015160c08201516040516370a0823160e01b81523360048201526001600160a01b03909116906370a082319060240160206040518083038186803b158015610bb857600080fd5b505afa158015610bcc573d6000803e3d6000fd5b505050506040513d601f19601f82011682018060405250810190610bf091906140f4565b1015610c1257604051638228b9cb60e01b81526004810185905260240161063a565b600061010082018181528582526008602090815260409283902084518155818501516001820155928401516002840155606084015160038401556080840151600484015560a08401516005840180546001600160a01b039283166001600160a01b031990911617905560c085015160068501805460e088015195511515600160a81b0260ff60a81b19961515600160a01b026001600160a81b031990921693909416929092179190911793909316179091556101208301518051849392610ce0926007850192910190613d36565b506101408201518051610cfd916008840191602090910190613d36565b506101608201518051610d1a916009840191602090910190613d36565b50905050610d298233866129db565b8060a001516001600160a01b0316826001600160a01b031614610da857600061271061ffff1682608001518360600151610d639190614811565b610d6d91906147f1565b9050610d83338360a001518460c0015184612b7b565b610da233848460c00151848660600151610d9d9190614830565b612b7b565b50610dbc565b610dbc33838360c001518460600151612b7b565b604080516001600160a01b038416815233602082015285917fda33032f9fdf4294e306d57542659d17b99275badf1c5f2e585f8f66a9e3fd5a910160405180910390a250505050565b6000612710821115610e2a5760405163e0e54ced60e01b815260040160405180910390fd5b610e35858585612c18565b610e5257604051630350906d60e21b815260040160405180910390fd5b610e5e33600754612c57565b600060405180610180016040528087815260200186815260200185815260200160008152602001848152602001336001600160a01b0316815260200160006001600160a01b031681526020016000151581526020016000151581526020018a815260200189815260200188815250905080600860006007548152602001908152602001600020600082015181600001556020820151816001015560408201518160020155606082015181600301556080820151816004015560a08201518160050160006101000a8154816001600160a01b0302191690836001600160a01b0316021790555060c08201518160060160006101000a8154816001600160a01b0302191690836001600160a01b0316021790555060e08201518160060160146101000a81548160ff0219169083151502179055506101008201518160060160156101000a81548160ff021916908315150217905550610120820151816007019080519060200190610fce929190613d36565b506101408201518051610feb916008840191602090910190613d36565b506101608201518051611008916009840191602090910190613d36565b5050600780549150600061101b836148fb565b909155509998505050505050505050565b61077083838360405180602001604052806000815250611cd1565b60086020526000908152604090208054600182015460028301546003840154600485015460058601546006870154600788018054979896979596949593946001600160a01b03938416949383169360ff600160a01b8504811694600160a81b90041692906110b4906148a0565b80601f01602080910402602001604051908101604052809291908181526020018280546110e0906148a0565b801561112d5780601f106111025761010080835404028352916020019161112d565b820191906000526020600020905b81548152906001019060200180831161111057829003601f168201915b505050505090806008018054611142906148a0565b80601f016020809104026020016040519081016040528092919081815260200182805461116e906148a0565b80156111bb5780601f10611190576101008083540402835291602001916111bb565b820191906000526020600020905b81548152906001019060200180831161119e57829003601f168201915b5050505050908060090180546111d0906148a0565b80601f01602080910402602001604051908101604052809291908181526020018280546111fc906148a0565b80156112495780601f1061121e57610100808354040283529160200191611249565b820191906000526020600020905b81548152906001019060200180831161122c57829003601f168201915b505050505090508c565b6000818152600260205260408120546001600160a01b03168061053a5760405162461bcd60e51b815260206004820152602960248201527f4552433732313a206f776e657220717565727920666f72206e6f6e657869737460448201526832b73a103a37b5b2b760b91b606482015260840161063a565b60006001600160a01b0382166113355760405162461bcd60e51b815260206004820152602a60248201527f4552433732313a2062616c616e636520717565727920666f7220746865207a65604482015269726f206164647265737360b01b606482015260840161063a565b506001600160a01b031660009081526003602052604090205490565b6006546001600160a01b0316331461137b5760405162461bcd60e51b815260040161063a90614692565b6113856000612c75565b565b8261139181612866565b6113b05760405162ce66c960e21b81526004810182905260240161063a565b836113ba81611253565b6001600160a01b0316336001600160a01b0316146113ee57604051630fbd2d9760e11b81526004810182905260240161063a565b6001600160a01b03841660009081526009602052604090205460ff166114395760405163c42c464760e01b8152600481018690526001600160a01b038516602482015260440161063a565b600085815260086020908152604080832081516101808101835281548152600182015493810193909352600281015491830191909152600381015460608301526004810154608083015260058101546001600160a01b0390811660a0840152600682015490811660c084015260ff600160a01b82048116151560e0850152600160a81b909104161515610100830152600781018054610120840191906114de906148a0565b80601f016020809104026020016040519081016040528092919081815260200182805461150a906148a0565b80156115575780601f1061152c57610100808354040283529160200191611557565b820191906000526020600020905b81548152906001019060200180831161153a57829003601f168201915b50505050508152602001600882018054611570906148a0565b80601f016020809104026020016040519081016040528092919081815260200182805461159c906148a0565b80156115e95780601f106115be576101008083540402835291602001916115e9565b820191906000526020600020905b8154815290600101906020018083116115cc57829003601f168201915b50505050508152602001600982018054611602906148a0565b80601f016020809104026020016040519081016040528092919081815260200182805461162e906148a0565b801561167b5780601f106116505761010080835404028352916020019161167b565b820191906000526020600020905b81548152906001019060200180831161165e57829003601f168201915b50505091909252505050606081018581526001600160a01b0387811660c0840190815260008a81526008602090815260409182902086518155818701516001820155918601516002830155935160038201556080850151600482015560a08501516005820180546001600160a01b031916918516919091179055905160068201805460e0870151610100880151939095166001600160a81b031990911617600160a01b941515949094029390931760ff60a81b1916600160a81b911515919091021790915561012083015180519394508493919261176192600785019290910190613d36565b50610140820151805161177e916008840191602090910190613d36565b50610160820151805161179b916009840191602090910190613d36565b505050505050505050565b60606001805461054f906148a0565b6001600160a01b03821633141561180e5760405162461bcd60e51b815260206004820152601960248201527f4552433732313a20617070726f766520746f2063616c6c657200000000000000604482015260640161063a565b3360008181526005602090815260408083206001600160a01b03871680855290835292819020805460ff191686151590811790915590519081529192917f17307eab39ab6107e8899845ad3d59bd9653f200f220920489ca2b5937696c31910160405180910390a35050565b8061188481612866565b6118a35760405162ce66c960e21b81526004810182905260240161063a565b816118ad81611253565b6001600160a01b0316336001600160a01b0316146118e157604051630fbd2d9760e11b81526004810182905260240161063a565b600083815260086020908152604080832081516101808101835281548152600182015493810193909352600281015491830191909152600381015460608301526004810154608083015260058101546001600160a01b0390811660a0840152600682015490811660c084015260ff600160a01b82048116151560e0850152600160a81b90910416151561010083015260078101805461012084019190611986906148a0565b80601f01602080910402602001604051908101604052809291908181526020018280546119b2906148a0565b80156119ff5780601f106119d4576101008083540402835291602001916119ff565b820191906000526020600020905b8154815290600101906020018083116119e257829003601f168201915b50505050508152602001600882018054611a18906148a0565b80601f0160208091040260200160405190810160405280929190818152602001828054611a44906148a0565b8015611a915780601f10611a6657610100808354040283529160200191611a91565b820191906000526020600020905b815481529060010190602001808311611a7457829003601f168201915b50505050508152602001600982018054611aaa906148a0565b80601f0160208091040260200160405190810160405280929190818152602001828054611ad6906148a0565b8015611b235780601f10611af857610100808354040283529160200191611b23565b820191906000526020600020905b815481529060010190602001808311611b0657829003601f168201915b5050505050815250509050806101000151158015611b5e575060c08101516001600160a01b031660009081526009602052604090205460ff16155b15611b945760c081015160405163c42c464760e01b8152600481018690526001600160a01b03909116602482015260440161063a565b6101008101805115815260008581526008602090815260409182902084518155818501516001820155918401516002830155606084015160038301556080840151600483015560a08401516005830180546001600160a01b039283166001600160a01b031990911617905560c085015160068401805460e088015196511515600160a81b0260ff60a81b19971515600160a01b026001600160a81b0319909216939094169290921791909117949094161790925561012083015180518493611c63926007850192910190613d36565b506101408201518051611c80916008840191602090910190613d36565b506101608201518051611c9d916009840191602090910190613d36565b50506040518591507fe7da35dd4a3bbfdef5a9e91f532a5d999ce77e0f045acfdbcdfc14506ed4cf0d90600090a250505050565b611cdb33836128f1565b611cf75760405162461bcd60e51b815260040161063a906146c7565b611d0384848484612cc7565b50505050565b6006546001600160a01b03163314611d335760405162461bcd60e51b815260040161063a90614692565b6001600160a01b038116600081815260096020526040808220805460ff19811660ff90911615179055517f7edfc77f007e9a7b7998ca228a01cb709d902cc7e82275183f6521e8e571af2f9190a250565b60008181526008602090815260408083208151610180810183528154815260018201549381019390935260028101549183019190915260038101546060838101919091526004820154608084015260058201546001600160a01b0390811660a0850152600683015490811660c085015260ff600160a01b82048116151560e0860152600160a81b909104161515610100840152600782018054919493929161012084019190611e32906148a0565b80601f0160208091040260200160405190810160405280929190818152602001828054611e5e906148a0565b8015611eab5780601f10611e8057610100808354040283529160200191611eab565b820191906000526020600020905b815481529060010190602001808311611e8e57829003601f168201915b50505050508152602001600882018054611ec4906148a0565b80601f0160208091040260200160405190810160405280929190818152602001828054611ef0906148a0565b8015611f3d5780601f10611f1257610100808354040283529160200191611f3d565b820191906000526020600020905b815481529060010190602001808311611f2057829003601f168201915b50505050508152602001600982018054611f56906148a0565b80601f0160208091040260200160405190810160405280929190818152602001828054611f82906148a0565b8015611fcf5780601f10611fa457610100808354040283529160200191611fcf565b820191906000526020600020905b815481529060010190602001808311611fb257829003601f168201915b5050505050815250509050611ff7604051806040016040528060008152602001606081525090565b61200081612cfa565b9050612038604051806040016040528060048152602001636e616d6560e01b81525083610120015183612d1d9092919063ffffffff16565b90506120776040518060400160405280600b81526020016a3232b9b1b934b83a34b7b760a91b81525083610140015183612d1d9092919063ffffffff16565b90506120ae6040518060400160405280600a8152602001696174747269627574657360b01b81525082612dc390919063ffffffff16565b90506120b981612cfa565b905061210e6040518060400160405280600a81526020016974726169745f7479706560b01b815250604051806040016040528060048152602001637479706560e01b81525083612d1d9092919063ffffffff16565b90506121476040518060400160405280600581526020016476616c756560d81b81525083610160015183612d1d9092919063ffffffff16565b905061215281612de7565b905061215d81612cfa565b90506121bf6040518060400160405280600a81526020016974726169745f7479706560b01b81525060405180604001604052806011815260200170617661696c6162696c6974792066726f6d60781b81525083612d1d9092919063ffffffff16565b60408051808201909152600581526476616c756560d81b602082015283519192506121ec91839190612e0a565b90506121f781612de7565b905061220281612cfa565b90506122626040518060400160405280600a81526020016974726169745f7479706560b01b8152506040518060400160405280600f81526020016e617661696c6162696c69747920746f60881b81525083612d1d9092919063ffffffff16565b905061229a6040518060400160405280600581526020016476616c756560d81b815250836020015183612e0a9092919063ffffffff16565b90506122a581612de7565b90506122b081612cfa565b90506123096040518060400160405280600a81526020016974726169745f7479706560b01b81525060405180604001604052806008815260200167323ab930ba34b7b760c11b81525083612d1d9092919063ffffffff16565b604080518082018252600581526476616c756560d81b60208201529084015191925061233791839190612e0a565b905061234281612de7565b905061234d81612eb1565b905061235881612de7565b90506123678160200151612ed4565b60405160200161237791906145ab565b60405160208183030381529060405292505050919050565b8061239981612866565b6123b85760405162ce66c960e21b81526004810182905260240161063a565b816123c281611253565b6001600160a01b0316336001600160a01b0316146123f657604051630fbd2d9760e11b81526004810182905260240161063a565b600083815260086020908152604080832081516101808101835281548152600182015493810193909352600281015491830191909152600381015460608301526004810154608083015260058101546001600160a01b0390811660a0840152600682015490811660c084015260ff600160a01b82048116151560e0850152600160a81b9091041615156101008301526007810180546101208401919061249b906148a0565b80601f01602080910402602001604051908101604052809291908181526020018280546124c7906148a0565b80156125145780601f106124e957610100808354040283529160200191612514565b820191906000526020600020905b8154815290600101906020018083116124f757829003601f168201915b5050505050815260200160088201805461252d906148a0565b80601f0160208091040260200160405190810160405280929190818152602001828054612559906148a0565b80156125a65780601f1061257b576101008083540402835291602001916125a6565b820191906000526020600020905b81548152906001019060200180831161258957829003601f168201915b505050505081526020016009820180546125bf906148a0565b80601f01602080910402602001604051908101604052809291908181526020018280546125eb906148a0565b80156126385780601f1061260d57610100808354040283529160200191612638565b820191906000526020600020905b81548152906001019060200180831161261b57829003601f168201915b50505050508152505090508060e00151156126695760405163d36d946d60e01b81526004810185905260240161063a565b600160e08201818152600086815260086020908152604091829020855181558186015194810194909455908401516002840155606084015160038401556080840151600484015560a08401516005840180546001600160a01b039283166001600160a01b031990911617905560c085015160068501805494516101008801511515600160a81b0260ff60a81b19911515600160a01b026001600160a81b031990971693909416929092179490941716179091556101208301518051849392612738926007850192910190613d36565b506101408201518051612755916008840191602090910190613d36565b506101608201518051612772916009840191602090910190613d36565b50505050505050565b6006546001600160a01b031633146127a55760405162461bcd60e51b815260040161063a90614692565b6001600160a01b03811661280a5760405162461bcd60e51b815260206004820152602660248201527f4f776e61626c653a206e6577206f776e657220697320746865207a65726f206160448201526564647265737360d01b606482015260840161063a565b61281381612c75565b50565b60006001600160e01b031982166380ac58cd60e01b148061284757506001600160e01b03198216635b5e139f60e01b145b8061053a57506301ffc9a760e01b6001600160e01b031983161461053a565b6000908152600260205260409020546001600160a01b0316151590565b600081815260046020526040902080546001600160a01b0319166001600160a01b03841690811790915581906128b882611253565b6001600160a01b03167f8c5be1e5ebec7d5bd14f71427d1e84f3dd0314c0f7b2291e5b200ac8c7c3b92560405160405180910390a45050565b60006128fc82612866565b61295d5760405162461bcd60e51b815260206004820152602c60248201527f4552433732313a206f70657261746f7220717565727920666f72206e6f6e657860448201526b34b9ba32b73a103a37b5b2b760a11b606482015260840161063a565b600061296883611253565b9050806001600160a01b0316846001600160a01b031614806129a35750836001600160a01b0316612998846105d2565b6001600160a01b0316145b806129d357506001600160a01b0380821660009081526005602090815260408083209388168352929052205460ff165b949350505050565b826001600160a01b03166129ee82611253565b6001600160a01b031614612a565760405162461bcd60e51b815260206004820152602960248201527f4552433732313a207472616e73666572206f6620746f6b656e2074686174206960448201526839903737ba1037bbb760b91b606482015260840161063a565b6001600160a01b038216612ab85760405162461bcd60e51b8152602060048201526024808201527f4552433732313a207472616e7366657220746f20746865207a65726f206164646044820152637265737360e01b606482015260840161063a565b612ac3600082612883565b6001600160a01b0383166000908152600360205260408120805460019290612aec908490614830565b90915550506001600160a01b0382166000908152600360205260408120805460019290612b1a9084906147b4565b909155505060008181526002602052604080822080546001600160a01b0319166001600160a01b0386811691821790925591518493918716917fddf252ad1be2c89b69c2b068fc378daa952ba7f163c4a11628f55a4df523b3ef91a4505050565b6001600160a01b038216612c03576000836001600160a01b03168260405160006040518083038185875af1925050503d8060008114612bd6576040519150601f19603f3d011682016040523d82523d6000602084013e612bdb565b606091505b5050905080612bfd576040516312171d8360e31b815260040160405180910390fd5b50611d03565b611d036001600160a01b038316858584613048565b60008115801590612c4d5750831580612c2f575082155b80612c4d57508383118015612c4d5750612c498484614830565b8211155b90505b9392505050565b612c718282604051806020016040528060008152506130a2565b5050565b600680546001600160a01b038381166001600160a01b0319831681179093556040519116919082907f8be0079c531659141344cd1fd0a4f28419497f9722a3daafe3b4186f6b6457e090600090a35050565b612cd28484846129db565b612cde848484846130d5565b611d035760405162461bcd60e51b815260040161063a90614640565b60408051808201909152600081526060602082015261053a82607b60f81b6131e2565b6040805180820190915260008152606060208201526000612d3d83613283565b9050600085600001511215612d8357602080860151604051612d6992600b60fa1b9188918691016141fb565b60408051601f198184030181529190526020860152612db0565b602080860151604051612d9a928791859101614376565b60408051601f1981840301815291905260208601525b8451600160ff1b17855250929392505050565b604080518082019091526000815260606020820152612c508383605b60f81b6137de565b60408051808201909152600081526060602082015261053a82607d60f81b613884565b604080518082019091526000815260606020820152835160001315612e6a578360200151600b60fa1b84612e3d856138ef565b604051602001612e5094939291906142de565b60408051601f198184030181529190526020850152612ea1565b836020015183612e79846138ef565b604051602001612e8b93929190614440565b60408051601f1981840301815291905260208501525b50508151600160ff1b1782525090565b60408051808201909152600081526060602082015261053a82605d60f81b613884565b6060815160001415612ef457505060408051602081019091526000815290565b600060405180606001604052806040815260200161495c6040913990506000600384516002612f2391906147b4565b612f2d91906147f1565b612f38906004614811565b90506000612f478260206147b4565b67ffffffffffffffff811115612f6d57634e487b7160e01b600052604160045260246000fd5b6040519080825280601f01601f191660200182016040528015612f97576020820181803683370190505b509050818152600183018586518101602084015b81831015613003576003830192508251603f8160121c168501518253600182019150603f81600c1c168501518253600182019150603f8160061c168501518253600182019150603f8116850151825350600101612fab565b60038951066001811461301d576002811461302e5761303a565b613d3d60f01b60011983015261303a565b603d60f81b6000198301525b509398975050505050505050565b604080516001600160a01b0385811660248301528416604482015260648082018490528251808303909101815260849091019091526020810180516001600160e01b03166323b872dd60e01b179052611d03908590613a26565b6130ac8383613af8565b6130b960008484846130d5565b6107705760405162461bcd60e51b815260040161063a90614640565b60006001600160a01b0384163b156131d757604051630a85bd0160e11b81526001600160a01b0385169063150b7a02906131199033908990889088906004016145f0565b602060405180830381600087803b15801561313357600080fd5b505af1925050508015613163575060408051601f3d908101601f1916820190925261316091810190614017565b60015b6131bd573d808015613191576040519150601f19603f3d011682016040523d82523d6000602084013e613196565b606091505b5080516131b55760405162461bcd60e51b815260040161063a90614640565b805181602001fd5b6001600160e01b031916630a85bd0160e11b1490506129d3565b506001949350505050565b6040805180820190915260008152606060208201528251600013156132365760208084015160405161321c92600b60fa1b918691016141c8565b60408051601f198184030181529190526020840152613261565b60208084015160405161324b92859101614199565b60408051601f1981840301815291905260208401525b82516001600160ff1b031680845283613279826148db565b9052509192915050565b6060816000805b82518110156134d5578251601760fa1b908490839081106132bb57634e487b7160e01b600052603260045260246000fd5b01602001516001600160f81b03191614156132d957600191506134d5565b8251601160f91b9084908390811061330157634e487b7160e01b600052603260045260246000fd5b01602001516001600160f81b031916141561331f57600191506134d5565b8251602f60f81b9084908390811061334757634e487b7160e01b600052603260045260246000fd5b01602001516001600160f81b031916141561336557600191506134d5565b8251600960f81b9084908390811061338d57634e487b7160e01b600052603260045260246000fd5b01602001516001600160f81b03191614156133ab57600191506134d5565b8251600360fa1b908490839081106133d357634e487b7160e01b600052603260045260246000fd5b01602001516001600160f81b03191614156133f157600191506134d5565b8251600560f91b9084908390811061341957634e487b7160e01b600052603260045260246000fd5b01602001516001600160f81b031916141561343757600191506134d5565b8251600d60f81b9084908390811061345f57634e487b7160e01b600052603260045260246000fd5b01602001516001600160f81b031916141561347d57600191506134d5565b8251600160fb1b908490839081106134a557634e487b7160e01b600052603260045260246000fd5b01602001516001600160f81b03191614156134c357600191506134d5565b806134cd816148fb565b91505061328a565b50806134e357509192915050565b60005b82518110156137d6578251601760fa1b9084908390811061351757634e487b7160e01b600052603260045260246000fd5b01602001516001600160f81b0319161415613553578360405160200161353d9190614350565b60405160208183030381529060405293506137c4565b8251601160f91b9084908390811061357b57634e487b7160e01b600052603260045260246000fd5b01602001516001600160f81b03191614156135a1578360405160200161353d9190614513565b8251602f60f81b908490839081106135c957634e487b7160e01b600052603260045260246000fd5b01602001516001600160f81b03191614156135ef578360405160200161353d9190614539565b8251600960f81b9084908390811061361757634e487b7160e01b600052603260045260246000fd5b01602001516001600160f81b031916141561363d578360405160200161353d9190614585565b8251600360fa1b9084908390811061366557634e487b7160e01b600052603260045260246000fd5b01602001516001600160f81b031916141561368b578360405160200161353d919061455f565b8251600560f91b908490839081106136b357634e487b7160e01b600052603260045260246000fd5b01602001516001600160f81b03191614156136d9578360405160200161353d91906144ed565b8251600d60f81b9084908390811061370157634e487b7160e01b600052603260045260246000fd5b01602001516001600160f81b0319161415613727578360405160200161353d91906144a1565b8251600160fb1b9084908390811061374f57634e487b7160e01b600052603260045260246000fd5b01602001516001600160f81b0319161415613775578360405160200161353d91906144c7565b8383828151811061379657634e487b7160e01b600052603260045260246000fd5b602001015160f81c60f81b6040516020016137b2929190614199565b60405160208183030381529060405293505b806137ce816148fb565b9150506134e6565b505050919050565b6040805180820190915260008152606060208201528351600013156138345760208085015160405161381a92600b60fa1b918791879101614277565b60408051601f198184030181529190526020850152613861565b60208085015160405161384b9286918691016143e2565b60408051601f1981840301815291905260208501525b83516001600160ff1b031680855284613879826148db565b905250929392505050565b6040805180820190915260008152606060208201526020808401516040516138ae92859101614199565b60408051808303601f1901815291905260208401528251600160ff1b178084526001600160ff1b0316156138e85782518361327982614873565b5090919050565b6060816139135750506040805180820190915260018152600360fc1b602082015290565b8160005b811561393d5780613927816148fb565b91506139369050600a836147f1565b9150613917565b60008167ffffffffffffffff81111561396657634e487b7160e01b600052604160045260246000fd5b6040519080825280601f01601f191660200182016040528015613990576020820181803683370190505b509050815b8515613a1d576139a6600a876147f1565b6139b190600a614811565b6139bb9087614830565b6139c69060306147cc565b60f81b826139d383614891565b925082815181106139f457634e487b7160e01b600052603260045260246000fd5b60200101906001600160f81b031916908160001a905350613a16600a876147f1565b9550613995565b50949350505050565b6000613a7b826040518060400160405280602081526020017f5361666545524332303a206c6f772d6c6576656c2063616c6c206661696c6564815250856001600160a01b0316613c2b9092919063ffffffff16565b8051909150156107705780806020019051810190613a999190613fdf565b6107705760405162461bcd60e51b815260206004820152602a60248201527f5361666545524332303a204552433230206f7065726174696f6e20646964206e6044820152691bdd081cdd58d8d9595960b21b606482015260840161063a565b6001600160a01b038216613b4e5760405162461bcd60e51b815260206004820181905260248201527f4552433732313a206d696e7420746f20746865207a65726f2061646472657373604482015260640161063a565b613b5781612866565b15613ba45760405162461bcd60e51b815260206004820152601c60248201527f4552433732313a20746f6b656e20616c7265616479206d696e74656400000000604482015260640161063a565b6001600160a01b0382166000908152600360205260408120805460019290613bcd9084906147b4565b909155505060008181526002602052604080822080546001600160a01b0319166001600160a01b03861690811790915590518392907fddf252ad1be2c89b69c2b068fc378daa952ba7f163c4a11628f55a4df523b3ef908290a45050565b6060612c4d848460008585843b613c845760405162461bcd60e51b815260206004820152601d60248201527f416464726573733a2063616c6c20746f206e6f6e2d636f6e7472616374000000604482015260640161063a565b600080866001600160a01b03168587604051613ca0919061417d565b60006040518083038185875af1925050503d8060008114613cdd576040519150601f19603f3d011682016040523d82523d6000602084013e613ce2565b606091505b5091509150613cf2828286613cfd565b979650505050505050565b60608315613d0c575081612c50565b825115613d1c5782518084602001fd5b8160405162461bcd60e51b815260040161063a919061462d565b828054613d42906148a0565b90600052602060002090601f016020900481019282613d645760008555613daa565b82601f10613d7d57805160ff1916838001178555613daa565b82800160010185558215613daa579182015b82811115613daa578251825591602001919060010190613d8f565b50613db6929150613dba565b5090565b5b80821115613db65760008155600101613dbb565b600067ffffffffffffffff80841115613dea57613dea614921565b604051601f8501601f19908116603f01168101908282118183101715613e1257613e12614921565b81604052809350858152868686011115613e2b57600080fd5b858560208301376000602087830101525050509392505050565b80356001600160a01b0381168114613e5c57600080fd5b919050565b600082601f830112613e71578081fd5b612c5083833560208501613dcf565b600060208284031215613e91578081fd5b612c5082613e45565b60008060408385031215613eac578081fd5b613eb583613e45565b9150613ec360208401613e45565b90509250929050565b600080600060608486031215613ee0578081fd5b613ee984613e45565b9250613ef760208501613e45565b9150604084013590509250925092565b60008060008060808587031215613f1c578081fd5b613f2585613e45565b9350613f3360208601613e45565b925060408501359150606085013567ffffffffffffffff811115613f55578182fd5b8501601f81018713613f65578182fd5b613f7487823560208401613dcf565b91505092959194509250565b60008060408385031215613f92578182fd5b613f9b83613e45565b91506020830135613fab81614937565b809150509250929050565b60008060408385031215613fc8578182fd5b613fd183613e45565b946020939093013593505050565b600060208284031215613ff0578081fd5b8151612c5081614937565b60006020828403121561400c578081fd5b8135612c5081614945565b600060208284031215614028578081fd5b8151612c5081614945565b600080600080600080600060e0888a03121561404d578283fd5b873567ffffffffffffffff80821115614064578485fd5b6140708b838c01613e61565b985060208a0135915080821115614085578485fd5b6140918b838c01613e61565b975060408a01359150808211156140a6578485fd5b506140b38a828b01613e61565b979a96995096976060810135975060808101359660a0820135965060c090910135945092505050565b6000602082840312156140ed578081fd5b5035919050565b600060208284031215614105578081fd5b5051919050565b600080600060608486031215614120578081fd5b83359250613ef760208501613e45565b60008060408385031215614142578182fd5b50508035926020909101359150565b60008151808452614169816020860160208601614847565b601f01601f19169290920160200192915050565b6000825161418f818460208701614847565b9190910192915050565b600083516141ab818460208801614847565b6001600160f81b0319939093169190920190815260010192915050565b600084516141da818460208901614847565b6001600160f81b031994851692019182525091166001820152600201919050565b6000855161420d818460208a01614847565b6001600160f81b03198616908301908152601160f91b60018201819052855161423d816002850160208a01614847565b63111d101160e11b600293909101928301528451614262816006850160208901614847565b60069201918201526007019695505050505050565b60008551614289818460208a01614847565b6001600160f81b0319868116918401918252601160f91b600183015285516142b8816002850160208a01614847565b620111d160ed1b6002939091019283015293909316600584015250506006019392505050565b600085516142f0818460208a01614847565b6001600160f81b03198616908301908152601160f91b6001820152845161431e816002840160208901614847565b620111d160ed1b600292909101918201528351614342816005840160208801614847565b016005019695505050505050565b60008251614362818460208701614847565b61171760f21b920191825250600201919050565b60008451614388818460208901614847565b601160f91b90830181815285519091906143a9816001850160208a01614847565b63111d101160e11b6001939091019283015284516143ce816005850160208901614847565b600592019182015260060195945050505050565b600084516143f4818460208901614847565b601160f91b9083019081528451614412816001840160208901614847565b620111d160ed1b600192909101918201526001600160f81b0319939093166004840152505060050192915050565b60008451614452818460208901614847565b601160f91b9083019081528451614470816001840160208901614847565b620111d160ed1b600192909101918201528351614494816004840160208801614847565b0160040195945050505050565b600082516144b3818460208701614847565b612e3960f11b920191825250600201919050565b600082516144d9818460208701614847565b612e3160f11b920191825250600201919050565b600082516144ff818460208701614847565b612e3760f11b920191825250600201919050565b60008251614525818460208701614847565b612e1160f11b920191825250600201919050565b6000825161454b818460208701614847565b615c2f60f01b920191825250600201919050565b60008251614571818460208701614847565b612e3360f11b920191825250600201919050565b60008251614597818460208701614847565b61171d60f21b920191825250600201919050565b7f646174613a6170706c69636174696f6e2f6a736f6e3b6261736536342c0000008152600082516145e381601d850160208701614847565b91909101601d0192915050565b6001600160a01b038581168252841660208201526040810183905260806060820181905260009061462390830184614151565b9695505050505050565b602081526000612c506020830184614151565b60208082526032908201527f4552433732313a207472616e7366657220746f206e6f6e20455243373231526560408201527131b2b4bb32b91034b6b83632b6b2b73a32b960711b606082015260800190565b6020808252818101527f4f776e61626c653a2063616c6c6572206973206e6f7420746865206f776e6572604082015260600190565b60208082526031908201527f4552433732313a207472616e736665722063616c6c6572206973206e6f74206f6040820152701ddb995c881b9bdc88185c1c1c9bdd9959607a1b606082015260800190565b8c8152602081018c9052604081018b9052606081018a9052608081018990526001600160a01b0388811660a0830152871660c082015285151560e082015284151561010082015260006101808061012084015261477781840187614151565b905082810361014084015261478c8186614151565b90508281036101608401526147a18185614151565b9f9e505050505050505050505050505050565b600082198211156147c7576147c761490b565b500190565b600060ff821660ff84168060ff038211156147e9576147e961490b565b019392505050565b60008261480c57634e487b7160e01b81526012600452602481fd5b500490565b600081600019048311821515161561482b5761482b61490b565b500290565b6000828210156148425761484261490b565b500390565b60005b8381101561486257818101518382015260200161484a565b83811115611d035750506000910152565b6000600160ff1b8214156148895761488961490b565b506000190190565b6000816148895761488961490b565b600181811c908216806148b457607f821691505b602082108114156148d557634e487b7160e01b600052602260045260246000fd5b50919050565b60006001600160ff1b038214156148f4576148f461490b565b5060010190565b60006000198214156148f4576148f45b634e487b7160e01b600052601160045260246000fd5b634e487b7160e01b600052604160045260246000fd5b801515811461281357600080fd5b6001600160e01b03198116811461281357600080fdfe4142434445464748494a4b4c4d4e4f505152535455565758595a6162636465666768696a6b6c6d6e6f707172737475767778797a303132333435363738392b2fa26469706673582212201471b606c75444ce62f9f1e998e3bb4c7dca2fc64cebb3ec2db4be6c3e2a204a64736f6c63430008040033",
  "linkReferences": {},
  "deployedLinkReferences": {}
}