{
  "_format": "hh-sol-artifact-1",
  "contractName": "TimeCollection",
  "sourceName": "contracts/TimeCollection.sol",
  "abi": [
    {
      "inputs": [
        {
          "internalType": "string",
          "name": "name",
          "type": "string"
        },
        {
          "internalType": "string",
          "name": "symbol",
          "type": "string"
        }
      ],
      "stateMutability": "nonpayable",
      "type": "constructor"
    },
    {
      "anonymous": false,
      "inputs": [
        {
          "indexed": true,
          "internalType": "address",
          "name": "owner",
          "type": "address"
        },
        {
          "indexed": true,
          "internalType": "address",
          "name": "approved",
          "type": "address"
        },
        {
          "indexed": true,
          "internalType": "uint256",
          "name": "tokenId",
          "type": "uint256"
        }
      ],
      "name": "Approval",
      "type": "event"
    },
    {
      "anonymous": false,
      "inputs": [
        {
          "indexed": true,
          "internalType": "address",
          "name": "owner",
          "type": "address"
        },
        {
          "indexed": true,
          "internalType": "address",
          "name": "operator",
          "type": "address"
        },
        {
          "indexed": false,
          "internalType": "bool",
          "name": "approved",
          "type": "bool"
        }
      ],
      "name": "ApprovalForAll",
      "type": "event"
    },
    {
      "anonymous": false,
      "inputs": [
        {
          "indexed": true,
          "internalType": "address",
          "name": "currency",
          "type": "address"
        }
      ],
      "name": "CurrencyAllowanceToggled",
      "type": "event"
    },
    {
      "anonymous": false,
      "inputs": [
        {
          "indexed": true,
          "internalType": "address",
          "name": "previousOwner",
          "type": "address"
        },
        {
          "indexed": true,
          "internalType": "address",
          "name": "newOwner",
          "type": "address"
        }
      ],
      "name": "OwnershipTransferred",
      "type": "event"
    },
    {
      "anonymous": false,
      "inputs": [
        {
          "indexed": true,
          "internalType": "uint256",
          "name": "tokenId",
          "type": "uint256"
        },
        {
          "indexed": false,
          "internalType": "address",
          "name": "seller",
          "type": "address"
        },
        {
          "indexed": false,
          "internalType": "address",
          "name": "buyer",
          "type": "address"
        }
      ],
      "name": "TokenBought",
      "type": "event"
    },
    {
      "anonymous": false,
      "inputs": [
        {
          "indexed": true,
          "internalType": "uint256",
          "name": "tokenId",
          "type": "uint256"
        }
      ],
      "name": "TokenForSaleToggled",
      "type": "event"
    },
    {
      "anonymous": false,
      "inputs": [
        {
          "indexed": true,
          "internalType": "uint256",
          "name": "tokenId",
          "type": "uint256"
        },
        {
          "indexed": false,
          "internalType": "uint256",
          "name": "newPrice",
          "type": "uint256"
        }
      ],
      "name": "TokenPriceChanged",
      "type": "event"
    },
    {
      "anonymous": false,
      "inputs": [
        {
          "indexed": true,
          "internalType": "address",
          "name": "from",
          "type": "address"
        },
        {
          "indexed": true,
          "internalType": "address",
          "name": "to",
          "type": "address"
        },
        {
          "indexed": true,
          "internalType": "uint256",
          "name": "tokenId",
          "type": "uint256"
        }
      ],
      "name": "Transfer",
      "type": "event"
    },
    {
      "inputs": [
        {
          "internalType": "address",
          "name": "to",
          "type": "address"
        },
        {
          "internalType": "uint256",
          "name": "tokenId",
          "type": "uint256"
        }
      ],
      "name": "approve",
      "outputs": [],
      "stateMutability": "nonpayable",
      "type": "function"
    },
    {
      "inputs": [
        {
          "internalType": "address",
          "name": "owner",
          "type": "address"
        }
      ],
      "name": "balanceOf",
      "outputs": [
        {
          "internalType": "uint256",
          "name": "",
          "type": "uint256"
        }
      ],
      "stateMutability": "view",
      "type": "function"
    },
    {
      "inputs": [
        {
          "internalType": "uint256",
          "name": "tokenId",
          "type": "uint256"
        }
      ],
      "name": "buyToken",
      "outputs": [],
      "stateMutability": "payable",
      "type": "function"
    },
    {
      "inputs": [
        {
          "internalType": "uint256",
          "name": "tokenId",
          "type": "uint256"
        },
        {
          "internalType": "address",
          "name": "currency",
          "type": "address"
        },
        {
          "internalType": "uint256",
          "name": "price",
          "type": "uint256"
        }
      ],
      "name": "changeTokenBuyingConditions",
      "outputs": [],
      "stateMutability": "nonpayable",
      "type": "function"
    },
    {
      "inputs": [
        {
          "internalType": "uint256",
          "name": "tokenId",
          "type": "uint256"
        }
      ],
      "name": "getApproved",
      "outputs": [
        {
          "internalType": "address",
          "name": "",
          "type": "address"
        }
      ],
      "stateMutability": "view",
      "type": "function"
    },
    {
      "inputs": [
        {
          "internalType": "address",
          "name": "owner",
          "type": "address"
        },
        {
          "internalType": "address",
          "name": "operator",
          "type": "address"
        }
      ],
      "name": "isApprovedForAll",
      "outputs": [
        {
          "internalType": "bool",
          "name": "",
          "type": "bool"
        }
      ],
      "stateMutability": "view",
      "type": "function"
    },
    {
      "inputs": [
        {
          "internalType": "address",
          "name": "",
          "type": "address"
        }
      ],
      "name": "isCurrencyAllowed",
      "outputs": [
        {
          "internalType": "bool",
          "name": "",
          "type": "bool"
        }
      ],
      "stateMutability": "view",
      "type": "function"
    },
    {
      "inputs": [
        {
          "internalType": "string",
          "name": "name",
          "type": "string"
        },
        {
          "internalType": "string",
          "name": "description",
          "type": "string"
        },
        {
          "internalType": "string",
          "name": "work",
          "type": "string"
        },
        {
          "internalType": "string",
          "name": "time",
          "type": "string"
        },
        {
          "internalType": "string",
          "name": "date",
          "type": "string"
        },
        {
          "internalType": "uint256",
          "name": "royalty",
          "type": "uint256"
        }
      ],
      "name": "mint",
      "outputs": [],
      "stateMutability": "nonpayable",
      "type": "function"
    },
    {
      "inputs": [],
      "name": "name",
      "outputs": [
        {
          "internalType": "string",
          "name": "",
          "type": "string"
        }
      ],
      "stateMutability": "view",
      "type": "function"
    },
    {
      "inputs": [],
      "name": "owner",
      "outputs": [
        {
          "internalType": "address",
          "name": "",
          "type": "address"
        }
      ],
      "stateMutability": "view",
      "type": "function"
    },
    {
      "inputs": [
        {
          "internalType": "uint256",
          "name": "tokenId",
          "type": "uint256"
        }
      ],
      "name": "ownerOf",
      "outputs": [
        {
          "internalType": "address",
          "name": "",
          "type": "address"
        }
      ],
      "stateMutability": "view",
      "type": "function"
    },
    {
      "inputs": [
        {
          "internalType": "uint256",
          "name": "tokenId",
          "type": "uint256"
        }
      ],
      "name": "redeem",
      "outputs": [],
      "stateMutability": "nonpayable",
      "type": "function"
    },
    {
      "inputs": [],
      "name": "renounceOwnership",
      "outputs": [],
      "stateMutability": "nonpayable",
      "type": "function"
    },
    {
      "inputs": [
        {
          "internalType": "uint256",
          "name": "tokenId",
          "type": "uint256"
        },
        {
          "internalType": "uint256",
          "name": "salePrice",
          "type": "uint256"
        }
      ],
      "name": "royaltyInfo",
      "outputs": [
        {
          "internalType": "address",
          "name": "",
          "type": "address"
        },
        {
          "internalType": "uint256",
          "name": "",
          "type": "uint256"
        }
      ],
      "stateMutability": "view",
      "type": "function"
    },
    {
      "inputs": [
        {
          "internalType": "address",
          "name": "from",
          "type": "address"
        },
        {
          "internalType": "address",
          "name": "to",
          "type": "address"
        },
        {
          "internalType": "uint256",
          "name": "tokenId",
          "type": "uint256"
        }
      ],
      "name": "safeTransferFrom",
      "outputs": [],
      "stateMutability": "nonpayable",
      "type": "function"
    },
    {
      "inputs": [
        {
          "internalType": "address",
          "name": "from",
          "type": "address"
        },
        {
          "internalType": "address",
          "name": "to",
          "type": "address"
        },
        {
          "internalType": "uint256",
          "name": "tokenId",
          "type": "uint256"
        },
        {
          "internalType": "bytes",
          "name": "_data",
          "type": "bytes"
        }
      ],
      "name": "safeTransferFrom",
      "outputs": [],
      "stateMutability": "nonpayable",
      "type": "function"
    },
    {
      "inputs": [
        {
          "internalType": "address",
          "name": "operator",
          "type": "address"
        },
        {
          "internalType": "bool",
          "name": "approved",
          "type": "bool"
        }
      ],
      "name": "setApprovalForAll",
      "outputs": [],
      "stateMutability": "nonpayable",
      "type": "function"
    },
    {
      "inputs": [
        {
          "internalType": "bytes4",
          "name": "interfaceId",
          "type": "bytes4"
        }
      ],
      "name": "supportsInterface",
      "outputs": [
        {
          "internalType": "bool",
          "name": "",
          "type": "bool"
        }
      ],
      "stateMutability": "view",
      "type": "function"
    },
    {
      "inputs": [],
      "name": "symbol",
      "outputs": [
        {
          "internalType": "string",
          "name": "",
          "type": "string"
        }
      ],
      "stateMutability": "view",
      "type": "function"
    },
    {
      "inputs": [
        {
          "internalType": "address",
          "name": "currency",
          "type": "address"
        }
      ],
      "name": "toggleCurrencyAllowance",
      "outputs": [],
      "stateMutability": "nonpayable",
      "type": "function"
    },
    {
      "inputs": [
        {
          "internalType": "uint256",
          "name": "tokenId",
          "type": "uint256"
        }
      ],
      "name": "toggleForSale",
      "outputs": [],
      "stateMutability": "nonpayable",
      "type": "function"
    },
    {
      "inputs": [
        {
          "internalType": "uint256",
          "name": "tokenId",
          "type": "uint256"
        }
      ],
      "name": "tokenURI",
      "outputs": [
        {
          "internalType": "string",
          "name": "",
          "type": "string"
        }
      ],
      "stateMutability": "view",
      "type": "function"
    },
    {
      "inputs": [
        {
          "internalType": "uint256",
          "name": "",
          "type": "uint256"
        }
      ],
      "name": "tokens",
      "outputs": [
        {
          "internalType": "uint256",
          "name": "tokenId",
          "type": "uint256"
        },
        {
          "internalType": "uint256",
          "name": "price",
          "type": "uint256"
        },
        {
          "internalType": "uint256",
          "name": "royalty",
          "type": "uint256"
        },
        {
          "internalType": "string",
          "name": "name",
          "type": "string"
        },
        {
          "internalType": "string",
          "name": "description",
          "type": "string"
        },
        {
          "internalType": "string",
          "name": "work",
          "type": "string"
        },
        {
          "internalType": "string",
          "name": "time",
          "type": "string"
        },
        {
          "internalType": "string",
          "name": "date",
          "type": "string"
        },
        {
          "internalType": "bool",
          "name": "redeemed",
          "type": "bool"
        },
        {
          "internalType": "bool",
          "name": "forSale",
          "type": "bool"
        },
        {
          "internalType": "address payable",
          "name": "mintedBy",
          "type": "address"
        },
        {
          "internalType": "address",
          "name": "currency",
          "type": "address"
        }
      ],
      "stateMutability": "view",
      "type": "function"
    },
    {
      "inputs": [
        {
          "internalType": "address",
          "name": "from",
          "type": "address"
        },
        {
          "internalType": "address",
          "name": "to",
          "type": "address"
        },
        {
          "internalType": "uint256",
          "name": "tokenId",
          "type": "uint256"
        }
      ],
      "name": "transferFrom",
      "outputs": [],
      "stateMutability": "nonpayable",
      "type": "function"
    },
    {
      "inputs": [
        {
          "internalType": "address",
          "name": "newOwner",
          "type": "address"
        }
      ],
      "name": "transferOwnership",
      "outputs": [],
      "stateMutability": "nonpayable",
      "type": "function"
    }
  ],
  "bytecode": "0x60806040523480156200001157600080fd5b5060405162004f7b38038062004f7b83398101604081905262000034916200023c565b8151829082906200004d906000906020850190620000e3565b50805162000063906001906020840190620000e3565b505050620000806200007a6200008d60201b60201c565b62000091565b50506000600755620002f6565b3390565b600680546001600160a01b038381166001600160a01b0319831681179093556040519116919082907f8be0079c531659141344cd1fd0a4f28419497f9722a3daafe3b4186f6b6457e090600090a35050565b828054620000f190620002a3565b90600052602060002090601f01602090048101928262000115576000855562000160565b82601f106200013057805160ff191683800117855562000160565b8280016001018555821562000160579182015b828111156200016057825182559160200191906001019062000143565b506200016e92915062000172565b5090565b5b808211156200016e576000815560010162000173565b600082601f8301126200019a578081fd5b81516001600160401b0380821115620001b757620001b7620002e0565b604051601f8301601f19908116603f01168101908282118183101715620001e257620001e2620002e0565b81604052838152602092508683858801011115620001fe578485fd5b8491505b8382101562000221578582018301518183018401529082019062000202565b838211156200023257848385830101525b9695505050505050565b600080604083850312156200024f578182fd5b82516001600160401b038082111562000266578384fd5b620002748683870162000189565b935060208501519150808211156200028a578283fd5b50620002998582860162000189565b9150509250929050565b600181811c90821680620002b857607f821691505b60208210811415620002da57634e487b7160e01b600052602260045260246000fd5b50919050565b634e487b7160e01b600052604160045260246000fd5b614c7580620003066000396000f3fe6080604052600436106101665760003560e01c8063715018a6116100d1578063b88d4fde1161008a578063db006a7511610064578063db006a751461046c578063e58883681461048c578063e985e9c5146104ac578063f2fde38b146104f557600080fd5b8063b88d4fde1461040c578063bae1ae401461042c578063c87b56dd1461044c57600080fd5b8063715018a6146103645780637f37739b146103795780638da5cb5b1461039957806395d89b41146103b7578063a22cb465146103cc578063a32018b9146103ec57600080fd5b80632d296bf1116101235780632d296bf11461027b57806342842e0e1461028e5780634f64b2be146102ae5780635a195d19146102e65780636352211e1461031657806370a082311461033657600080fd5b806301ffc9a71461016b57806306fdde03146101a0578063081812fc146101c2578063095ea7b3146101fa57806323b872dd1461021c5780632a55205a1461023c575b600080fd5b34801561017757600080fd5b5061018b61018636600461436d565b610515565b60405190151581526020015b60405180910390f35b3480156101ac57600080fd5b506101b5610540565b60405161019791906148df565b3480156101ce57600080fd5b506101e26101dd366004614479565b6105d2565b6040516001600160a01b039091168152602001610197565b34801561020657600080fd5b5061021a610215366004614328565b61065f565b005b34801561022857600080fd5b5061021a61023736600461423e565b610775565b34801561024857600080fd5b5061025c6102573660046144b5565b6107a6565b604080516001600160a01b039093168352602083019190915201610197565b61021a610289366004614479565b610822565b34801561029a57600080fd5b5061021a6102a936600461423e565b610eca565b3480156102ba57600080fd5b506102ce6102c9366004614479565b610ee5565b6040516101979c9b9a999897969594939291906149ca565b3480156102f257600080fd5b5061018b6103013660046141f2565b60096020526000908152604090205460ff1681565b34801561032257600080fd5b506101e2610331366004614479565b6111fd565b34801561034257600080fd5b506103566103513660046141f2565b611274565b604051908152602001610197565b34801561037057600080fd5b5061021a6112fb565b34801561038557600080fd5b5061021a610394366004614491565b611331565b3480156103a557600080fd5b506006546001600160a01b03166101e2565b3480156103c357600080fd5b506101b561188a565b3480156103d857600080fd5b5061021a6103e73660046142f2565b611899565b3480156103f857600080fd5b5061021a610407366004614479565b61195e565b34801561041857600080fd5b5061021a610427366004614279565b611eee565b34801561043857600080fd5b5061021a6104473660046141f2565b611f26565b34801561045857600080fd5b506101b5610467366004614479565b611fa1565b34801561047857600080fd5b5061021a610487366004614479565b61261a565b34801561049857600080fd5b5061021a6104a73660046143a5565b612b3e565b3480156104b857600080fd5b5061018b6104c736600461420c565b6001600160a01b03918216600090815260056020908152604080832093909416825291909152205460ff1690565b34801561050157600080fd5b5061021a6105103660046141f2565b612d08565b60006001600160e01b0319821663152a902d60e11b148061053a575061053a82612da3565b92915050565b60606000805461054f90614b44565b80601f016020809104026020016040519081016040528092919081815260200182805461057b90614b44565b80156105c85780601f1061059d576101008083540402835291602001916105c8565b820191906000526020600020905b8154815290600101906020018083116105ab57829003601f168201915b5050505050905090565b60006105dd82612df3565b6106435760405162461bcd60e51b815260206004820152602c60248201527f4552433732313a20617070726f76656420717565727920666f72206e6f6e657860448201526b34b9ba32b73a103a37b5b2b760a11b60648201526084015b60405180910390fd5b506000908152600460205260409020546001600160a01b031690565b600061066a826111fd565b9050806001600160a01b0316836001600160a01b031614156106d85760405162461bcd60e51b815260206004820152602160248201527f4552433732313a20617070726f76616c20746f2063757272656e74206f776e656044820152603960f91b606482015260840161063a565b336001600160a01b03821614806106f457506106f481336104c7565b6107665760405162461bcd60e51b815260206004820152603860248201527f4552433732313a20617070726f76652063616c6c6572206973206e6f74206f7760448201527f6e6572206e6f7220617070726f76656420666f7220616c6c0000000000000000606482015260840161063a565b6107708383612e10565b505050565b61077f3382612e7e565b61079b5760405162461bcd60e51b815260040161063a90614979565b610770838383612f68565b600080836107b381612df3565b6107d25760405162ce66c960e21b81526004810182905260240161063a565b600085815260086020819052604090912090810154600290910154620100009091046001600160a01b0316906127109061080c9087614ac4565b6108169190614aa4565b92509250509250929050565b8061082c81612df3565b61084b5760405162ce66c960e21b81526004810182905260240161063a565b3361086b57604051634726455360e11b815233600482015260240161063a565b6000610876836111fd565b90506001600160a01b0381163314156108ab576040516301f26c9560e61b81523360048201526024810184905260440161063a565b600060086000858152602001908152602001600020604051806101800160405290816000820154815260200160018201548152602001600282015481526020016003820180546108fa90614b44565b80601f016020809104026020016040519081016040528092919081815260200182805461092690614b44565b80156109735780601f1061094857610100808354040283529160200191610973565b820191906000526020600020905b81548152906001019060200180831161095657829003601f168201915b5050505050815260200160048201805461098c90614b44565b80601f01602080910402602001604051908101604052809291908181526020018280546109b890614b44565b8015610a055780601f106109da57610100808354040283529160200191610a05565b820191906000526020600020905b8154815290600101906020018083116109e857829003601f168201915b50505050508152602001600582018054610a1e90614b44565b80601f0160208091040260200160405190810160405280929190818152602001828054610a4a90614b44565b8015610a975780601f10610a6c57610100808354040283529160200191610a97565b820191906000526020600020905b815481529060010190602001808311610a7a57829003601f168201915b50505050508152602001600682018054610ab090614b44565b80601f0160208091040260200160405190810160405280929190818152602001828054610adc90614b44565b8015610b295780601f10610afe57610100808354040283529160200191610b29565b820191906000526020600020905b815481529060010190602001808311610b0c57829003601f168201915b50505050508152602001600782018054610b4290614b44565b80601f0160208091040260200160405190810160405280929190818152602001828054610b6e90614b44565b8015610bbb5780601f10610b9057610100808354040283529160200191610bbb565b820191906000526020600020905b815481529060010190602001808311610b9e57829003601f168201915b5050509183525050600882015460ff80821615156020808501919091526101008304821615156040808601919091526001600160a01b036201000090940484166060860152600995860154841660809095019490945261016086015190921660009081529390915291205491925016610c605761016081015160405163c42c464760e01b8152600481018690526001600160a01b03909116602482015260440161063a565b806101200151610c8657604051630cb5f92160e41b81526004810185905260240161063a565b8060200151341015610cae57604051638228b9cb60e01b81526004810185905260240161063a565b60006101208201819052848152600860209081526040918290208351815581840151600182015591830151600283015560608301518051849392610cf99260038501929101906140a8565b5060808201518051610d159160048401916020909101906140a8565b5060a08201518051610d319160058401916020909101906140a8565b5060c08201518051610d4d9160068401916020909101906140a8565b5060e08201518051610d699160078401916020909101906140a8565b506101008281015160088301805461012086015161014087015161ffff1990921693151561ff001916939093179215159093029190911762010000600160b01b031916620100006001600160a01b039384160217905561016090920151600990910180546001600160a01b03191691909216179055610de9823386612f68565b8061014001516001600160a01b0316826001600160a01b031614610e6c57600061271061ffff1682604001518360200151610e249190614ac4565b610e2e9190614aa4565b9050610e463383610140015184610160015184613108565b610e663384846101600151848660200151610e619190614ae3565b613108565b50610e81565b610e8133838361016001518460200151613108565b604080516001600160a01b038416815233602082015285917fda33032f9fdf4294e306d57542659d17b99275badf1c5f2e585f8f66a9e3fd5a910160405180910390a250505050565b61077083838360405180602001604052806000815250611eee565b600860205260009081526040902080546001820154600283015460038401805493949293919291610f1590614b44565b80601f0160208091040260200160405190810160405280929190818152602001828054610f4190614b44565b8015610f8e5780601f10610f6357610100808354040283529160200191610f8e565b820191906000526020600020905b815481529060010190602001808311610f7157829003601f168201915b505050505090806004018054610fa390614b44565b80601f0160208091040260200160405190810160405280929190818152602001828054610fcf90614b44565b801561101c5780601f10610ff15761010080835404028352916020019161101c565b820191906000526020600020905b815481529060010190602001808311610fff57829003601f168201915b50505050509080600501805461103190614b44565b80601f016020809104026020016040519081016040528092919081815260200182805461105d90614b44565b80156110aa5780601f1061107f576101008083540402835291602001916110aa565b820191906000526020600020905b81548152906001019060200180831161108d57829003601f168201915b5050505050908060060180546110bf90614b44565b80601f01602080910402602001604051908101604052809291908181526020018280546110eb90614b44565b80156111385780601f1061110d57610100808354040283529160200191611138565b820191906000526020600020905b81548152906001019060200180831161111b57829003601f168201915b50505050509080600701805461114d90614b44565b80601f016020809104026020016040519081016040528092919081815260200182805461117990614b44565b80156111c65780601f1061119b576101008083540402835291602001916111c6565b820191906000526020600020905b8154815290600101906020018083116111a957829003601f168201915b5050506008840154600990940154929360ff80821694610100830490911693506001600160a01b036201000090920482169250168c565b6000818152600260205260408120546001600160a01b03168061053a5760405162461bcd60e51b815260206004820152602960248201527f4552433732313a206f776e657220717565727920666f72206e6f6e657869737460448201526832b73a103a37b5b2b760b91b606482015260840161063a565b60006001600160a01b0382166112df5760405162461bcd60e51b815260206004820152602a60248201527f4552433732313a2062616c616e636520717565727920666f7220746865207a65604482015269726f206164647265737360b01b606482015260840161063a565b506001600160a01b031660009081526003602052604090205490565b6006546001600160a01b031633146113255760405162461bcd60e51b815260040161063a90614944565b61132f60006131a5565b565b8261133b81612df3565b61135a5760405162ce66c960e21b81526004810182905260240161063a565b83611364816111fd565b6001600160a01b0316336001600160a01b03161461139857604051630fbd2d9760e11b81526004810182905260240161063a565b6001600160a01b03841660009081526009602052604090205460ff166113e35760405163c42c464760e01b8152600481018690526001600160a01b038516602482015260440161063a565b6000600860008781526020019081526020016000206040518061018001604052908160008201548152602001600182015481526020016002820154815260200160038201805461143290614b44565b80601f016020809104026020016040519081016040528092919081815260200182805461145e90614b44565b80156114ab5780601f10611480576101008083540402835291602001916114ab565b820191906000526020600020905b81548152906001019060200180831161148e57829003601f168201915b505050505081526020016004820180546114c490614b44565b80601f01602080910402602001604051908101604052809291908181526020018280546114f090614b44565b801561153d5780601f106115125761010080835404028352916020019161153d565b820191906000526020600020905b81548152906001019060200180831161152057829003601f168201915b5050505050815260200160058201805461155690614b44565b80601f016020809104026020016040519081016040528092919081815260200182805461158290614b44565b80156115cf5780601f106115a4576101008083540402835291602001916115cf565b820191906000526020600020905b8154815290600101906020018083116115b257829003601f168201915b505050505081526020016006820180546115e890614b44565b80601f016020809104026020016040519081016040528092919081815260200182805461161490614b44565b80156116615780601f1061163657610100808354040283529160200191611661565b820191906000526020600020905b81548152906001019060200180831161164457829003601f168201915b5050505050815260200160078201805461167a90614b44565b80601f01602080910402602001604051908101604052809291908181526020018280546116a690614b44565b80156116f35780601f106116c8576101008083540402835291602001916116f3565b820191906000526020600020905b8154815290600101906020018083116116d657829003601f168201915b505050918352505060088281015460ff8082161515602080860191909152610100830490911615156040808601919091526001600160a01b0362010000909304831660608087019190915260099096015483166080909501949094528581018a8152918b1661016087015260008c81529281529183902085518155905160018201559184015160028301559183015180519394508493919261179d926003850192909101906140a8565b50608082015180516117b99160048401916020909101906140a8565b5060a082015180516117d59160058401916020909101906140a8565b5060c082015180516117f19160068401916020909101906140a8565b5060e0820151805161180d9160078401916020909101906140a8565b506101008281015160088301805461012086015161014087015161ffff1990921693151561ff001916939093179215159093029190911762010000600160b01b031916620100006001600160a01b039384160217905561016090920151600990910180546001600160a01b03191691909216179055505050505050565b60606001805461054f90614b44565b6001600160a01b0382163314156118f25760405162461bcd60e51b815260206004820152601960248201527f4552433732313a20617070726f766520746f2063616c6c657200000000000000604482015260640161063a565b3360008181526005602090815260408083206001600160a01b03871680855290835292819020805460ff191686151590811790915590519081529192917f17307eab39ab6107e8899845ad3d59bd9653f200f220920489ca2b5937696c31910160405180910390a35050565b8061196881612df3565b6119875760405162ce66c960e21b81526004810182905260240161063a565b81611991816111fd565b6001600160a01b0316336001600160a01b0316146119c557604051630fbd2d9760e11b81526004810182905260240161063a565b60006008600085815260200190815260200160002060405180610180016040529081600082015481526020016001820154815260200160028201548152602001600382018054611a1490614b44565b80601f0160208091040260200160405190810160405280929190818152602001828054611a4090614b44565b8015611a8d5780601f10611a6257610100808354040283529160200191611a8d565b820191906000526020600020905b815481529060010190602001808311611a7057829003601f168201915b50505050508152602001600482018054611aa690614b44565b80601f0160208091040260200160405190810160405280929190818152602001828054611ad290614b44565b8015611b1f5780601f10611af457610100808354040283529160200191611b1f565b820191906000526020600020905b815481529060010190602001808311611b0257829003601f168201915b50505050508152602001600582018054611b3890614b44565b80601f0160208091040260200160405190810160405280929190818152602001828054611b6490614b44565b8015611bb15780601f10611b8657610100808354040283529160200191611bb1565b820191906000526020600020905b815481529060010190602001808311611b9457829003601f168201915b50505050508152602001600682018054611bca90614b44565b80601f0160208091040260200160405190810160405280929190818152602001828054611bf690614b44565b8015611c435780601f10611c1857610100808354040283529160200191611c43565b820191906000526020600020905b815481529060010190602001808311611c2657829003601f168201915b50505050508152602001600782018054611c5c90614b44565b80601f0160208091040260200160405190810160405280929190818152602001828054611c8890614b44565b8015611cd55780601f10611caa57610100808354040283529160200191611cd5565b820191906000526020600020905b815481529060010190602001808311611cb857829003601f168201915b5050509183525050600882015460ff80821615156020840152610100820416151560408301526001600160a01b036201000090910481166060830152600990920154909116608090910152610120810151909150158015611d5457506101608101516001600160a01b031660009081526009602052604090205460ff16155b15611d8b5761016081015160405163c42c464760e01b8152600481018690526001600160a01b03909116602482015260440161063a565b610120810180511590526000848152600860209081526040918290208351815581840151600182015591830151600283015560608301518051849392611dd89260038501929101906140a8565b5060808201518051611df49160048401916020909101906140a8565b5060a08201518051611e109160058401916020909101906140a8565b5060c08201518051611e2c9160068401916020909101906140a8565b5060e08201518051611e489160078401916020909101906140a8565b506101008281015160088301805461012086015161014087015161ffff1990921693151561ff001916939093179215159093029190911762010000600160b01b031916620100006001600160a01b039384160217905561016090920151600990910180546001600160a01b0319169190921617905560405184907fe7da35dd4a3bbfdef5a9e91f532a5d999ce77e0f045acfdbcdfc14506ed4cf0d90600090a250505050565b611ef83383612e7e565b611f145760405162461bcd60e51b815260040161063a90614979565b611f20848484846131f7565b50505050565b6006546001600160a01b03163314611f505760405162461bcd60e51b815260040161063a90614944565b6001600160a01b038116600081815260096020526040808220805460ff19811660ff90911615179055517f7edfc77f007e9a7b7998ca228a01cb709d902cc7e82275183f6521e8e571af2f9190a250565b606060006008600084815260200190815260200160002060405180610180016040529081600082015481526020016001820154815260200160028201548152602001600382018054611ff290614b44565b80601f016020809104026020016040519081016040528092919081815260200182805461201e90614b44565b801561206b5780601f106120405761010080835404028352916020019161206b565b820191906000526020600020905b81548152906001019060200180831161204e57829003601f168201915b5050505050815260200160048201805461208490614b44565b80601f01602080910402602001604051908101604052809291908181526020018280546120b090614b44565b80156120fd5780601f106120d2576101008083540402835291602001916120fd565b820191906000526020600020905b8154815290600101906020018083116120e057829003601f168201915b5050505050815260200160058201805461211690614b44565b80601f016020809104026020016040519081016040528092919081815260200182805461214290614b44565b801561218f5780601f106121645761010080835404028352916020019161218f565b820191906000526020600020905b81548152906001019060200180831161217257829003601f168201915b505050505081526020016006820180546121a890614b44565b80601f01602080910402602001604051908101604052809291908181526020018280546121d490614b44565b80156122215780601f106121f657610100808354040283529160200191612221565b820191906000526020600020905b81548152906001019060200180831161220457829003601f168201915b5050505050815260200160078201805461223a90614b44565b80601f016020809104026020016040519081016040528092919081815260200182805461226690614b44565b80156122b35780601f10612288576101008083540402835291602001916122b3565b820191906000526020600020905b81548152906001019060200180831161229657829003601f168201915b5050509183525050600882015460ff808216151560208085019190915261010083049091161515604080850191909152620100009092046001600160a01b03908116606080860191909152600990950154166080909301929092528051808201909152600081529081019190915290915061232d8161322a565b9050612364604051806040016040528060048152602001636e616d6560e01b81525083606001518361324d9092919063ffffffff16565b90506123a26040518060400160405280600b81526020016a3232b9b1b934b83a34b7b760a91b81525083608001518361324d9092919063ffffffff16565b90506123d96040518060400160405280600a8152602001696174747269627574657360b01b815250826132f590919063ffffffff16565b90506123e48161322a565b90506124396040518060400160405280600a81526020016974726169745f7479706560b01b815250604051806040016040528060048152602001637479706560e01b8152508361324d9092919063ffffffff16565b90506124716040518060400160405280600581526020016476616c756560d81b8152508360a001518361324d9092919063ffffffff16565b905061247c81613319565b90506124878161322a565b90506124e76040518060400160405280600a81526020016974726169745f7479706560b01b8152506040518060400160405280600f81526020016e4e756d626572206f6620486f75727360881b8152508361324d9092919063ffffffff16565b905061251f6040518060400160405280600581526020016476616c756560d81b8152508360c001518361324d9092919063ffffffff16565b905061252a81613319565b90506125358161322a565b905061258a6040518060400160405280600a81526020016974726169745f7479706560b01b815250604051806040016040528060048152602001634461746560e01b8152508361324d9092919063ffffffff16565b90506125c26040518060400160405280600581526020016476616c756560d81b8152508360e001518361324d9092919063ffffffff16565b90506125cd81613319565b90506125d88161333c565b90506125e381613319565b90506125f2816020015161335f565b604051602001612602919061485d565b60405160208183030381529060405292505050919050565b8061262481612df3565b6126435760405162ce66c960e21b81526004810182905260240161063a565b8161264d816111fd565b6001600160a01b0316336001600160a01b03161461268157604051630fbd2d9760e11b81526004810182905260240161063a565b600060086000858152602001908152602001600020604051806101800160405290816000820154815260200160018201548152602001600282015481526020016003820180546126d090614b44565b80601f01602080910402602001604051908101604052809291908181526020018280546126fc90614b44565b80156127495780601f1061271e57610100808354040283529160200191612749565b820191906000526020600020905b81548152906001019060200180831161272c57829003601f168201915b5050505050815260200160048201805461276290614b44565b80601f016020809104026020016040519081016040528092919081815260200182805461278e90614b44565b80156127db5780601f106127b0576101008083540402835291602001916127db565b820191906000526020600020905b8154815290600101906020018083116127be57829003601f168201915b505050505081526020016005820180546127f490614b44565b80601f016020809104026020016040519081016040528092919081815260200182805461282090614b44565b801561286d5780601f106128425761010080835404028352916020019161286d565b820191906000526020600020905b81548152906001019060200180831161285057829003601f168201915b5050505050815260200160068201805461288690614b44565b80601f01602080910402602001604051908101604052809291908181526020018280546128b290614b44565b80156128ff5780601f106128d4576101008083540402835291602001916128ff565b820191906000526020600020905b8154815290600101906020018083116128e257829003601f168201915b5050505050815260200160078201805461291890614b44565b80601f016020809104026020016040519081016040528092919081815260200182805461294490614b44565b80156129915780601f1061296657610100808354040283529160200191612991565b820191906000526020600020905b81548152906001019060200180831161297457829003601f168201915b5050509183525050600882015460ff80821615156020840152610100808304909116151560408401526001600160a01b0362010000909204821660608401526009909301541660809091015281015190915015612a045760405163d36d946d60e01b81526004810185905260240161063a565b6001610100820181905260008581526008602090815260409182902084518155818501519381019390935590830151600283015560608301518051849392612a539260038501929101906140a8565b5060808201518051612a6f9160048401916020909101906140a8565b5060a08201518051612a8b9160058401916020909101906140a8565b5060c08201518051612aa79160068401916020909101906140a8565b5060e08201518051612ac39160078401916020909101906140a8565b506101008281015160088301805461012086015161014087015161ffff1990921693151561ff001916939093179215159093029190911762010000600160b01b031916620100006001600160a01b039384160217905561016090920151600990910180546001600160a01b0319169190921617905550505050565b612710811115612b615760405163e0e54ced60e01b815260040160405180910390fd5b612b6d336007546134d3565b604080516101808101825260075480825260006020808401828152848601878152606086018d8152608087018d905260a087018c905260c087018b905260e087018a90526101008701859052610120870185905233610140880152610160870185905294845260088352959092208451815591516001830155935160028201559051805192938493612c0592600385019201906140a8565b5060808201518051612c219160048401916020909101906140a8565b5060a08201518051612c3d9160058401916020909101906140a8565b5060c08201518051612c599160068401916020909101906140a8565b5060e08201518051612c759160078401916020909101906140a8565b506101008281015160088301805461012086015161014087015161ffff1990921693151561ff001916939093179215159093029190911762010000600160b01b031916620100006001600160a01b039384160217905561016090920151600990910180546001600160a01b0319169190921617905560078054906000612cfa83614b9f565b919050555050505050505050565b6006546001600160a01b03163314612d325760405162461bcd60e51b815260040161063a90614944565b6001600160a01b038116612d975760405162461bcd60e51b815260206004820152602660248201527f4f776e61626c653a206e6577206f776e657220697320746865207a65726f206160448201526564647265737360d01b606482015260840161063a565b612da0816131a5565b50565b60006001600160e01b031982166380ac58cd60e01b1480612dd457506001600160e01b03198216635b5e139f60e01b145b8061053a57506301ffc9a760e01b6001600160e01b031983161461053a565b6000908152600260205260409020546001600160a01b0316151590565b600081815260046020526040902080546001600160a01b0319166001600160a01b0384169081179091558190612e45826111fd565b6001600160a01b03167f8c5be1e5ebec7d5bd14f71427d1e84f3dd0314c0f7b2291e5b200ac8c7c3b92560405160405180910390a45050565b6000612e8982612df3565b612eea5760405162461bcd60e51b815260206004820152602c60248201527f4552433732313a206f70657261746f7220717565727920666f72206e6f6e657860448201526b34b9ba32b73a103a37b5b2b760a11b606482015260840161063a565b6000612ef5836111fd565b9050806001600160a01b0316846001600160a01b03161480612f305750836001600160a01b0316612f25846105d2565b6001600160a01b0316145b80612f6057506001600160a01b0380821660009081526005602090815260408083209388168352929052205460ff165b949350505050565b826001600160a01b0316612f7b826111fd565b6001600160a01b031614612fe35760405162461bcd60e51b815260206004820152602960248201527f4552433732313a207472616e73666572206f6620746f6b656e2074686174206960448201526839903737ba1037bbb760b91b606482015260840161063a565b6001600160a01b0382166130455760405162461bcd60e51b8152602060048201526024808201527f4552433732313a207472616e7366657220746f20746865207a65726f206164646044820152637265737360e01b606482015260840161063a565b613050600082612e10565b6001600160a01b0383166000908152600360205260408120805460019290613079908490614ae3565b90915550506001600160a01b03821660009081526003602052604081208054600192906130a7908490614a8c565b909155505060008181526002602052604080822080546001600160a01b0319166001600160a01b0386811691821790925591518493918716917fddf252ad1be2c89b69c2b068fc378daa952ba7f163c4a11628f55a4df523b3ef91a4505050565b6001600160a01b038216613190576000836001600160a01b03168260405160006040518083038185875af1925050503d8060008114613163576040519150601f19603f3d011682016040523d82523d6000602084013e613168565b606091505b505090508061318a576040516312171d8360e31b815260040160405180910390fd5b50611f20565b611f206001600160a01b0383168585846134f1565b600680546001600160a01b038381166001600160a01b0319831681179093556040519116919082907f8be0079c531659141344cd1fd0a4f28419497f9722a3daafe3b4186f6b6457e090600090a35050565b613202848484612f68565b61320e8484848461354b565b611f205760405162461bcd60e51b815260040161063a906148f2565b60408051808201909152600081526060602082015261053a82607b60f81b613658565b604080518082019091526000815260606020820152600061326d836136f9565b90506000856000015112156132b35760208086015160405161329992600b60fa1b918891869101614580565b60408051601f1981840301815291905260208601526132e0565b6020808601516040516132ca928791859101614689565b60408051601f1981840301815291905260208601525b50508251600160ff1b178352825b9392505050565b6040805180820190915260008152606060208201526132ee8383605b60f81b613c54565b60408051808201909152600081526060602082015261053a82607d60f81b613cfa565b60408051808201909152600081526060602082015261053a82605d60f81b613cfa565b606081516000141561337f57505060408051602081019091526000815290565b6000604051806060016040528060408152602001614c0060409139905060006003845160026133ae9190614a8c565b6133b89190614aa4565b6133c3906004614ac4565b905060006133d2826020614a8c565b67ffffffffffffffff8111156133f857634e487b7160e01b600052604160045260246000fd5b6040519080825280601f01601f191660200182016040528015613422576020820181803683370190505b509050818152600183018586518101602084015b8183101561348e576003830192508251603f8160121c168501518253600182019150603f81600c1c168501518253600182019150603f8160061c168501518253600182019150603f8116850151825350600101613436565b6003895106600181146134a857600281146134b9576134c5565b613d3d60f01b6001198301526134c5565b603d60f81b6000198301525b509398975050505050505050565b6134ed828260405180602001604052806000815250613d65565b5050565b604080516001600160a01b0385811660248301528416604482015260648082018490528251808303909101815260849091019091526020810180516001600160e01b03166323b872dd60e01b179052611f20908590613d98565b60006001600160a01b0384163b1561364d57604051630a85bd0160e11b81526001600160a01b0385169063150b7a029061358f9033908990889088906004016148a2565b602060405180830381600087803b1580156135a957600080fd5b505af19250505080156135d9575060408051601f3d908101601f191682019092526135d691810190614389565b60015b613633573d808015613607576040519150601f19603f3d011682016040523d82523d6000602084013e61360c565b606091505b50805161362b5760405162461bcd60e51b815260040161063a906148f2565b805181602001fd5b6001600160e01b031916630a85bd0160e11b149050612f60565b506001949350505050565b6040805180820190915260008152606060208201528251600013156136ac5760208084015160405161369292600b60fa1b9186910161454d565b60408051601f1981840301815291905260208401526136d7565b6020808401516040516136c19285910161451e565b60408051601f1981840301815291905260208401525b82516001600160ff1b0316808452836136ef82614b7f565b9052509192915050565b6060816000805b825181101561394b578251601760fa1b9084908390811061373157634e487b7160e01b600052603260045260246000fd5b01602001516001600160f81b031916141561374f576001915061394b565b8251601160f91b9084908390811061377757634e487b7160e01b600052603260045260246000fd5b01602001516001600160f81b0319161415613795576001915061394b565b8251602f60f81b908490839081106137bd57634e487b7160e01b600052603260045260246000fd5b01602001516001600160f81b03191614156137db576001915061394b565b8251600960f81b9084908390811061380357634e487b7160e01b600052603260045260246000fd5b01602001516001600160f81b0319161415613821576001915061394b565b8251600360fa1b9084908390811061384957634e487b7160e01b600052603260045260246000fd5b01602001516001600160f81b0319161415613867576001915061394b565b8251600560f91b9084908390811061388f57634e487b7160e01b600052603260045260246000fd5b01602001516001600160f81b03191614156138ad576001915061394b565b8251600d60f81b908490839081106138d557634e487b7160e01b600052603260045260246000fd5b01602001516001600160f81b03191614156138f3576001915061394b565b8251600160fb1b9084908390811061391b57634e487b7160e01b600052603260045260246000fd5b01602001516001600160f81b0319161415613939576001915061394b565b8061394381614b9f565b915050613700565b508061395957509192915050565b60005b8251811015613c4c578251601760fa1b9084908390811061398d57634e487b7160e01b600052603260045260246000fd5b01602001516001600160f81b03191614156139c957836040516020016139b39190614663565b6040516020818303038152906040529350613c3a565b8251601160f91b908490839081106139f157634e487b7160e01b600052603260045260246000fd5b01602001516001600160f81b0319161415613a1757836040516020016139b391906147c5565b8251602f60f81b90849083908110613a3f57634e487b7160e01b600052603260045260246000fd5b01602001516001600160f81b0319161415613a6557836040516020016139b391906147eb565b8251600960f81b90849083908110613a8d57634e487b7160e01b600052603260045260246000fd5b01602001516001600160f81b0319161415613ab357836040516020016139b39190614837565b8251600360fa1b90849083908110613adb57634e487b7160e01b600052603260045260246000fd5b01602001516001600160f81b0319161415613b0157836040516020016139b39190614811565b8251600560f91b90849083908110613b2957634e487b7160e01b600052603260045260246000fd5b01602001516001600160f81b0319161415613b4f57836040516020016139b3919061479f565b8251600d60f81b90849083908110613b7757634e487b7160e01b600052603260045260246000fd5b01602001516001600160f81b0319161415613b9d57836040516020016139b39190614753565b8251600160fb1b90849083908110613bc557634e487b7160e01b600052603260045260246000fd5b01602001516001600160f81b0319161415613beb57836040516020016139b39190614779565b83838281518110613c0c57634e487b7160e01b600052603260045260246000fd5b602001015160f81c60f81b604051602001613c2892919061451e565b60405160208183030381529060405293505b80613c4481614b9f565b91505061395c565b505050919050565b604080518082019091526000815260606020820152835160001315613caa57602080850151604051613c9092600b60fa1b9187918791016145fc565b60408051601f198184030181529190526020850152613cd7565b602080850151604051613cc19286918691016146f5565b60408051601f1981840301815291905260208501525b83516001600160ff1b031680855284613cef82614b7f565b905250929392505050565b604080518082019091526000815260606020820152602080840151604051613d249285910161451e565b60408051808303601f1901815291905260208401528251600160ff1b178084526001600160ff1b031615613d5e578251836136ef82614b26565b5090919050565b613d6f8383613e6a565b613d7c600084848461354b565b6107705760405162461bcd60e51b815260040161063a906148f2565b6000613ded826040518060400160405280602081526020017f5361666545524332303a206c6f772d6c6576656c2063616c6c206661696c6564815250856001600160a01b0316613f9d9092919063ffffffff16565b8051909150156107705780806020019051810190613e0b9190614351565b6107705760405162461bcd60e51b815260206004820152602a60248201527f5361666545524332303a204552433230206f7065726174696f6e20646964206e6044820152691bdd081cdd58d8d9595960b21b606482015260840161063a565b6001600160a01b038216613ec05760405162461bcd60e51b815260206004820181905260248201527f4552433732313a206d696e7420746f20746865207a65726f2061646472657373604482015260640161063a565b613ec981612df3565b15613f165760405162461bcd60e51b815260206004820152601c60248201527f4552433732313a20746f6b656e20616c7265616479206d696e74656400000000604482015260640161063a565b6001600160a01b0382166000908152600360205260408120805460019290613f3f908490614a8c565b909155505060008181526002602052604080822080546001600160a01b0319166001600160a01b03861690811790915590518392907fddf252ad1be2c89b69c2b068fc378daa952ba7f163c4a11628f55a4df523b3ef908290a45050565b6060612f60848460008585843b613ff65760405162461bcd60e51b815260206004820152601d60248201527f416464726573733a2063616c6c20746f206e6f6e2d636f6e7472616374000000604482015260640161063a565b600080866001600160a01b031685876040516140129190614502565b60006040518083038185875af1925050503d806000811461404f576040519150601f19603f3d011682016040523d82523d6000602084013e614054565b606091505b509150915061406482828661406f565b979650505050505050565b6060831561407e5750816132ee565b82511561408e5782518084602001fd5b8160405162461bcd60e51b815260040161063a91906148df565b8280546140b490614b44565b90600052602060002090601f0160209004810192826140d6576000855561411c565b82601f106140ef57805160ff191683800117855561411c565b8280016001018555821561411c579182015b8281111561411c578251825591602001919060010190614101565b5061412892915061412c565b5090565b5b80821115614128576000815560010161412d565b600067ffffffffffffffff8084111561415c5761415c614bc5565b604051601f8501601f19908116603f0116810190828211818310171561418457614184614bc5565b8160405280935085815286868601111561419d57600080fd5b858560208301376000602087830101525050509392505050565b80356001600160a01b03811681146141ce57600080fd5b919050565b600082601f8301126141e3578081fd5b6132ee83833560208501614141565b600060208284031215614203578081fd5b6132ee826141b7565b6000806040838503121561421e578081fd5b614227836141b7565b9150614235602084016141b7565b90509250929050565b600080600060608486031215614252578081fd5b61425b846141b7565b9250614269602085016141b7565b9150604084013590509250925092565b6000806000806080858703121561428e578081fd5b614297856141b7565b93506142a5602086016141b7565b925060408501359150606085013567ffffffffffffffff8111156142c7578182fd5b8501601f810187136142d7578182fd5b6142e687823560208401614141565b91505092959194509250565b60008060408385031215614304578182fd5b61430d836141b7565b9150602083013561431d81614bdb565b809150509250929050565b6000806040838503121561433a578182fd5b614343836141b7565b946020939093013593505050565b600060208284031215614362578081fd5b81516132ee81614bdb565b60006020828403121561437e578081fd5b81356132ee81614be9565b60006020828403121561439a578081fd5b81516132ee81614be9565b60008060008060008060c087890312156143bd578182fd5b863567ffffffffffffffff808211156143d4578384fd5b6143e08a838b016141d3565b975060208901359150808211156143f5578384fd5b6144018a838b016141d3565b96506040890135915080821115614416578384fd5b6144228a838b016141d3565b95506060890135915080821115614437578384fd5b6144438a838b016141d3565b94506080890135915080821115614458578384fd5b5061446589828a016141d3565b92505060a087013590509295509295509295565b60006020828403121561448a578081fd5b5035919050565b6000806000606084860312156144a5578283fd5b83359250614269602085016141b7565b600080604083850312156144c7578182fd5b50508035926020909101359150565b600081518084526144ee816020860160208601614afa565b601f01601f19169290920160200192915050565b60008251614514818460208701614afa565b9190910192915050565b60008351614530818460208801614afa565b6001600160f81b0319939093169190920190815260010192915050565b6000845161455f818460208901614afa565b6001600160f81b031994851692019182525091166001820152600201919050565b60008551614592818460208a01614afa565b6001600160f81b03198616908301908152601160f91b6001820181905285516145c2816002850160208a01614afa565b63111d101160e11b6002939091019283015284516145e7816006850160208901614afa565b60069201918201526007019695505050505050565b6000855161460e818460208a01614afa565b6001600160f81b0319868116918401918252601160f91b6001830152855161463d816002850160208a01614afa565b620111d160ed1b6002939091019283015293909316600584015250506006019392505050565b60008251614675818460208701614afa565b61171760f21b920191825250600201919050565b6000845161469b818460208901614afa565b601160f91b90830181815285519091906146bc816001850160208a01614afa565b63111d101160e11b6001939091019283015284516146e1816005850160208901614afa565b600592019182015260060195945050505050565b60008451614707818460208901614afa565b601160f91b9083019081528451614725816001840160208901614afa565b620111d160ed1b600192909101918201526001600160f81b0319939093166004840152505060050192915050565b60008251614765818460208701614afa565b612e3960f11b920191825250600201919050565b6000825161478b818460208701614afa565b612e3160f11b920191825250600201919050565b600082516147b1818460208701614afa565b612e3760f11b920191825250600201919050565b600082516147d7818460208701614afa565b612e1160f11b920191825250600201919050565b600082516147fd818460208701614afa565b615c2f60f01b920191825250600201919050565b60008251614823818460208701614afa565b612e3360f11b920191825250600201919050565b60008251614849818460208701614afa565b61171d60f21b920191825250600201919050565b7f646174613a6170706c69636174696f6e2f6a736f6e3b6261736536342c00000081526000825161489581601d850160208701614afa565b91909101601d0192915050565b6001600160a01b03858116825284166020820152604081018390526080606082018190526000906148d5908301846144d6565b9695505050505050565b6020815260006132ee60208301846144d6565b60208082526032908201527f4552433732313a207472616e7366657220746f206e6f6e20455243373231526560408201527131b2b4bb32b91034b6b83632b6b2b73a32b960711b606082015260800190565b6020808252818101527f4f776e61626c653a2063616c6c6572206973206e6f7420746865206f776e6572604082015260600190565b60208082526031908201527f4552433732313a207472616e736665722063616c6c6572206973206e6f74206f6040820152701ddb995c881b9bdc88185c1c1c9bdd9959607a1b606082015260800190565b60006101808e83528d60208401528c60408401528060608401526149f08184018d6144d6565b90508281036080840152614a04818c6144d6565b905082810360a0840152614a18818b6144d6565b905082810360c0840152614a2c818a6144d6565b905082810360e0840152614a4081896144d6565b915050851515610100830152614a5b61012083018615159052565b6001600160a01b0384166101408301526001600160a01b0383166101608301529d9c50505050505050505050505050565b60008219821115614a9f57614a9f614baf565b500190565b600082614abf57634e487b7160e01b81526012600452602481fd5b500490565b6000816000190483118215151615614ade57614ade614baf565b500290565b600082821015614af557614af5614baf565b500390565b60005b83811015614b15578181015183820152602001614afd565b83811115611f205750506000910152565b6000600160ff1b821415614b3c57614b3c614baf565b506000190190565b600181811c90821680614b5857607f821691505b60208210811415614b7957634e487b7160e01b600052602260045260246000fd5b50919050565b60006001600160ff1b03821415614b9857614b98614baf565b5060010190565b6000600019821415614b9857614b985b634e487b7160e01b600052601160045260246000fd5b634e487b7160e01b600052604160045260246000fd5b8015158114612da057600080fd5b6001600160e01b031981168114612da057600080fdfe4142434445464748494a4b4c4d4e4f505152535455565758595a6162636465666768696a6b6c6d6e6f707172737475767778797a303132333435363738392b2fa26469706673582212204c1fc9f707abddfe323e788d67c34f7d6fb36f85e747dd0c1a202b655728574c64736f6c63430008040033",
  "linkReferences": {},
  "deployedLinkReferences": {}
}